{
  "contractName": "Auction",
  "abi": [
    {
      "constant": true,
      "inputs": [
        {
          "name": "_number",
          "type": "string"
        }
      ],
      "name": "getNumberOfAuctioning",
      "outputs": [
        {
          "components": [
            {
              "name": "auctionEnd",
              "type": "uint256"
            },
            {
              "name": "highestBid",
              "type": "uint256"
            },
            {
              "name": "state",
              "type": "uint8"
            },
            {
              "name": "name",
              "type": "string"
            }
          ],
          "name": "",
          "type": "tuple"
        }
      ],
      "payable": false,
      "stateMutability": "view",
      "type": "function"
    },
    {
      "constant": true,
      "inputs": [],
      "name": "STATE",
      "outputs": [
        {
          "name": "",
          "type": "uint8"
        }
      ],
      "payable": false,
      "stateMutability": "view",
      "type": "function"
    },
    {
      "inputs": [],
      "payable": false,
      "stateMutability": "nonpayable",
      "type": "constructor"
    },
    {
      "anonymous": false,
      "inputs": [
        {
          "indexed": true,
          "name": "highestBidder",
          "type": "address"
        },
        {
          "indexed": false,
          "name": "highestBid",
          "type": "uint256"
        }
      ],
      "name": "BidEvent",
      "type": "event"
    },
    {
      "anonymous": false,
      "inputs": [
        {
          "indexed": false,
          "name": "withdrawer",
          "type": "address"
        },
        {
          "indexed": false,
          "name": "amount",
          "type": "uint256"
        }
      ],
      "name": "WithdrawalEvent",
      "type": "event"
    },
    {
      "anonymous": false,
      "inputs": [
        {
          "indexed": false,
          "name": "message",
          "type": "string"
        },
        {
          "indexed": false,
          "name": "time",
          "type": "uint256"
        }
      ],
      "name": "CanceledEvent",
      "type": "event"
    },
    {
      "constant": false,
      "inputs": [
        {
          "name": "_minuteSet",
          "type": "uint8"
        },
        {
          "name": "_name",
          "type": "string"
        },
        {
          "name": "_number",
          "type": "string"
        }
      ],
      "name": "setAuction",
      "outputs": [
        {
          "name": "",
          "type": "bool"
        }
      ],
      "payable": false,
      "stateMutability": "nonpayable",
      "type": "function"
    },
    {
      "constant": false,
      "inputs": [],
      "name": "bid",
      "outputs": [
        {
          "name": "",
          "type": "bool"
        }
      ],
      "payable": true,
      "stateMutability": "payable",
      "type": "function"
    },
    {
      "constant": false,
      "inputs": [
        {
          "name": "_number",
          "type": "string"
        }
      ],
      "name": "bid",
      "outputs": [],
      "payable": true,
      "stateMutability": "payable",
      "type": "function"
    },
    {
      "constant": false,
      "inputs": [],
      "name": "cancelAuction",
      "outputs": [
        {
          "name": "",
          "type": "bool"
        }
      ],
      "payable": false,
      "stateMutability": "nonpayable",
      "type": "function"
    },
    {
      "constant": false,
      "inputs": [
        {
          "name": "_number",
          "type": "string"
        }
      ],
      "name": "cancelAuction",
      "outputs": [
        {
          "name": "",
          "type": "bool"
        }
      ],
      "payable": false,
      "stateMutability": "nonpayable",
      "type": "function"
    },
    {
      "constant": false,
      "inputs": [
        {
          "name": "_number",
          "type": "string"
        }
      ],
      "name": "withdraw",
      "outputs": [
        {
          "name": "",
          "type": "bool"
        }
      ],
      "payable": false,
      "stateMutability": "nonpayable",
      "type": "function"
    },
    {
      "constant": false,
      "inputs": [],
      "name": "withdraw",
      "outputs": [
        {
          "name": "",
          "type": "bool"
        }
      ],
      "payable": false,
      "stateMutability": "nonpayable",
      "type": "function"
    }
  ],
  "bytecode": "0x608060405234801561001057600080fd5b5061200c806100206000396000f3fe608060405260043610610093576000357c01000000000000000000000000000000000000000000000000000000009004806303b4ec60146100985780631998aeef146100d5578063248b6c9e146100f357806331fb67c2146101305780633ccfd60b1461016d5780637aef951c146101985780638fa8b790146101b4578063b60e7a3b146101df578063c486456c1461021c575b600080fd5b3480156100a457600080fd5b506100bf60048036036100ba9190810190611b06565b610247565b6040516100cc9190611e3d565b60405180910390f35b6100dd6104fc565b6040516100ea9190611d79565b60405180910390f35b3480156100ff57600080fd5b5061011a60048036036101159190810190611b47565b610501565b6040516101279190611d79565b60405180910390f35b34801561013c57600080fd5b5061015760048036036101529190810190611b06565b6109c1565b6040516101649190611d79565b60405180910390f35b34801561017957600080fd5b50610182611118565b60405161018f9190611d79565b60405180910390f35b6101b260048036036101ad9190810190611b06565b61111d565b005b3480156101c057600080fd5b506101c961179a565b6040516101d69190611d79565b60405180910390f35b3480156101eb57600080fd5b5061020660048036036102019190810190611ac1565b61179f565b6040516102139190611d79565b60405180910390f35b34801561022857600080fd5b5061023161191f565b60405161023e9190611d94565b60405180910390f35b61024f611932565b610257611932565b6000836040518082805190602001908083835b60208310151561028f578051825260208201915060208101905060208303925061026a565b6001836020036101000a0380198251168184511680821785525050505050509050019150509081526020016040518091039020600201548160000181815250506000836040518082805190602001908083835b60208310151561030757805182526020820191506020810190506020830392506102e2565b6001836020036101000a0380198251168184511680821785525050505050509050019150509081526020016040518091039020600301548160200181815250506000836040518082805190602001908083835b60208310151561037f578051825260208201915060208101905060208303925061035a565b6001836020036101000a038019825116818451168082178552505050505050905001915050908152602001604051809103902060040160149054906101000a900460ff16816040019060018111156103d357fe5b908160018111156103e057fe5b815250506000836040518082805190602001908083835b60208310151561041c57805182526020820191506020810190506020830392506103f7565b6001836020036101000a03801982511681845116808217855250505050505090500191505090815260200160405180910390206005018054600181600116156101000203166002900480601f0160208091040260200160405190810160405280929190818152602001828054600181600116156101000203166002900480156104e65780601f106104bb576101008083540402835291602001916104e6565b820191906000526020600020905b8154815290600101906020018083116104c957829003601f168201915b5050505050816060018190525080915050919050565b600090565b6000808460ff1611151561054a576040517f08c379a000000000000000000000000000000000000000000000000000000000815260040161054190611e1d565b60405180910390fd5b6000835114151515610591576040517f08c379a000000000000000000000000000000000000000000000000000000000815260040161058890611e1d565b60405180910390fd5b60008251141515156105d8576040517f08c379a00000000000000000000000000000000000000000000000000000000081526004016105cf90611e1d565b60405180910390fd5b336000836040518082805190602001908083835b60208310151561061157805182526020820191506020810190506020830392506105ec565b6001836020036101000a038019825116818451168082178552505050505050905001915050908152602001604051809103902060000160006101000a81548173ffffffffffffffffffffffffffffffffffffffff021916908373ffffffffffffffffffffffffffffffffffffffff160217905550426000836040518082805190602001908083835b6020831015156106be5780518252602082019150602081019050602083039250610699565b6001836020036101000a038019825116818451168082178552505050505050905001915050908152602001604051809103902060010181905550603c840260ff166000836040518082805190602001908083835b6020831015156107375780518252602082019150602081019050602083039250610712565b6001836020036101000a038019825116818451168082178552505050505050905001915050908152602001604051809103902060010154016000836040518082805190602001908083835b6020831015156107a75780518252602082019150602081019050602083039250610782565b6001836020036101000a03801982511681845116808217855250505050505090500191505090815260200160405180910390206002018190555060016000836040518082805190602001908083835b60208310151561081b57805182526020820191506020810190506020830392506107f6565b6001836020036101000a038019825116818451168082178552505050505050905001915050908152602001604051809103902060040160146101000a81548160ff0219169083600181111561086c57fe5b0217905550826000836040518082805190602001908083835b6020831015156108aa5780518252602082019150602081019050602083039250610885565b6001836020036101000a038019825116818451168082178552505050505050905001915050908152602001604051809103902060050190805190602001906108f3929190611966565b50816000836040518082805190602001908083835b60208310151561092d5780518252602082019150602081019050602083039250610908565b6001836020036101000a03801982511681845116808217855250505050505090500191505090815260200160405180910390206006019080519060200190610976929190611966565b5060038390806001815401808255809150509060018203906000526020600020016000909192909190915090805190602001906109b4929190611966565b5050600190509392505050565b6000426000836040518082805190602001908083835b6020831015156109fc57805182526020820191506020810190506020830392506109d7565b6001836020036101000a038019825116818451168082178552505050505050905001915050908152602001604051809103902060020154101515610a3f57600080fd5b600080836040518082805190602001908083835b602083101515610a785780518252602082019150602081019050602083039250610a53565b6001836020036101000a038019825116818451168082178552505050505050905001915050908152602001604051809103902060040160009054906101000a900473ffffffffffffffffffffffffffffffffffffffff1673ffffffffffffffffffffffffffffffffffffffff163373ffffffffffffffffffffffffffffffffffffffff16148015610b9a575060006001811115610b1157fe5b6000846040518082805190602001908083835b602083101515610b495780518252602082019150602081019050602083039250610b24565b6001836020036101000a038019825116818451168082178552505050505050905001915050908152602001604051809103902060040160149054906101000a900460ff166001811115610b9857fe5b145b15610f2a576002836040518082805190602001908083835b602083101515610bd75780518252602082019150602081019050602083039250610bb2565b6001836020036101000a0380198251168184511680821785525050505050509050019150509081526020016040518091039020600080856040518082805190602001908083835b602083101515610c435780518252602082019150602081019050602083039250610c1e565b6001836020036101000a038019825116818451168082178552505050505050905001915050908152602001604051809103902060040160009054906101000a900473ffffffffffffffffffffffffffffffffffffffff1673ffffffffffffffffffffffffffffffffffffffff1673ffffffffffffffffffffffffffffffffffffffff16815260200190815260200160002054905060006002846040518082805190602001908083835b602083101515610d115780518252602082019150602081019050602083039250610cec565b6001836020036101000a0380198251168184511680821785525050505050509050019150509081526020016040518091039020600080866040518082805190602001908083835b602083101515610d7d5780518252602082019150602081019050602083039250610d58565b6001836020036101000a038019825116818451168082178552505050505050905001915050908152602001604051809103902060040160009054906101000a900473ffffffffffffffffffffffffffffffffffffffff1673ffffffffffffffffffffffffffffffffffffffff1673ffffffffffffffffffffffffffffffffffffffff16815260200190815260200160002081905550600080846040518082805190602001908083835b602083101515610e4b5780518252602082019150602081019050602083039250610e26565b6001836020036101000a038019825116818451168082178552505050505050905001915050908152602001604051809103902060000160009054906101000a900473ffffffffffffffffffffffffffffffffffffffff1690508073ffffffffffffffffffffffffffffffffffffffff166108fc839081150290604051600060405180830381858888f19350505050158015610eea573d6000803e3d6000fd5b507f2f174ca282119315c59efaf21147aef438581dabdeb498198ae28964373dd8bc8183604051610f1c929190611d50565b60405180910390a15061110d565b6002836040518082805190602001908083835b602083101515610f625780518252602082019150602081019050602083039250610f3d565b6001836020036101000a038019825116818451168082178552505050505050905001915050908152602001604051809103902060003373ffffffffffffffffffffffffffffffffffffffff1673ffffffffffffffffffffffffffffffffffffffff16815260200190815260200160002054905060006002846040518082805190602001908083835b60208310151561100f5780518252602082019150602081019050602083039250610fea565b6001836020036101000a038019825116818451168082178552505050505050905001915050908152602001604051809103902060003373ffffffffffffffffffffffffffffffffffffffff1673ffffffffffffffffffffffffffffffffffffffff168152602001908152602001600020819055503373ffffffffffffffffffffffffffffffffffffffff166108fc829081150290604051600060405180830381858888f193505050501580156110c9573d6000803e3d6000fd5b507f2f174ca282119315c59efaf21147aef438581dabdeb498198ae28964373dd8bc33826040516110fb929190611d50565b60405180910390a16001915050611113565b60019150505b919050565b600090565b6000816040518082805190602001908083835b6020831015156111555780518252602082019150602081019050602083039250611130565b6001836020036101000a03801982511681845116808217855250505050505090500191505090815260200160405180910390206002015442111515156111d0576040517f08c379a00000000000000000000000000000000000000000000000000000000081526004016111c790611dfd565b60405180910390fd5b6000816040518082805190602001908083835b60208310151561120857805182526020820191506020810190506020830392506111e3565b6001836020036101000a038019825116818451168082178552505050505050905001915050908152602001604051809103902060030154346002836040518082805190602001908083835b6020831015156112785780518252602082019150602081019050602083039250611253565b6001836020036101000a038019825116818451168082178552505050505050905001915050908152602001604051809103902060003373ffffffffffffffffffffffffffffffffffffffff1673ffffffffffffffffffffffffffffffffffffffff168152602001908152602001600020540111151561132c576040517f08c379a000000000000000000000000000000000000000000000000000000000815260040161132390611daf565b60405180910390fd5b336000826040518082805190602001908083835b6020831015156113655780518252602082019150602081019050602083039250611340565b6001836020036101000a038019825116818451168082178552505050505050905001915050908152602001604051809103902060040160006101000a81548173ffffffffffffffffffffffffffffffffffffffff021916908373ffffffffffffffffffffffffffffffffffffffff160217905550346000826040518082805190602001908083835b60208310151561141257805182526020820191506020810190506020830392506113ed565b6001836020036101000a038019825116818451168082178552505050505050905001915050908152602001604051809103902060030181905550336001826040518082805190602001908083835b6020831015156114855780518252602082019150602081019050602083039250611460565b6001836020036101000a038019825116818451168082178552505050505050905001915050908152602001604051809103902060006101000a81548173ffffffffffffffffffffffffffffffffffffffff021916908373ffffffffffffffffffffffffffffffffffffffff160217905550346002826040518082805190602001908083835b60208310151561152f578051825260208201915060208101905060208303925061150a565b6001836020036101000a038019825116818451168082178552505050505050905001915050908152602001604051809103902060003373ffffffffffffffffffffffffffffffffffffffff1673ffffffffffffffffffffffffffffffffffffffff16815260200190815260200160002054016002826040518082805190602001908083835b6020831015156115d957805182526020820191506020810190506020830392506115b4565b6001836020036101000a038019825116818451168082178552505050505050905001915050908152602001604051809103902060003373ffffffffffffffffffffffffffffffffffffffff1673ffffffffffffffffffffffffffffffffffffffff168152602001908152602001600020819055506000816040518082805190602001908083835b6020831015156116855780518252602082019150602081019050602083039250611660565b6001836020036101000a038019825116818451168082178552505050505050905001915050908152602001604051809103902060040160009054906101000a900473ffffffffffffffffffffffffffffffffffffffff1673ffffffffffffffffffffffffffffffffffffffff167f0d993d4f8a84158f5329713d6d13ef54e77b325040c887c8b3e565cfd0cd3e216000836040518082805190602001908083835b60208310151561174b5780518252602082019150602081019050602083039250611726565b6001836020036101000a03801982511681845116808217855250505050505090500191505090815260200160405180910390206003015460405161178f9190611e5f565b60405180910390a250565b600090565b6000808383604051808383808284378083019250505092505050908152602001604051809103902060020154421115151561180f576040517f08c379a000000000000000000000000000000000000000000000000000000000815260040161180690611dfd565b60405180910390fd5b60008383604051808383808284378083019250505092505050908152602001604051809103902060000160009054906101000a900473ffffffffffffffffffffffffffffffffffffffff1673ffffffffffffffffffffffffffffffffffffffff163373ffffffffffffffffffffffffffffffffffffffff1614151561189357600080fd5b6000808484604051808383808284378083019250505092505050908152602001604051809103902060040160146101000a81548160ff021916908360018111156118d957fe5b02179055507f06b08932edfa95ecf10e18f8e389c58332551bbfe5faf843ed9afb329fd141184260405161190d9190611dcf565b60405180910390a16001905092915050565b600460009054906101000a900460ff1681565b60806040519081016040528060008152602001600081526020016000600181111561195957fe5b8152602001606081525090565b828054600181600116156101000203166002900490600052602060002090601f016020900481019282601f106119a757805160ff19168380011785556119d5565b828001600101855582156119d5579182015b828111156119d45782518255916020019190600101906119b9565b5b5090506119e291906119e6565b5090565b611a0891905b80821115611a045760008160009055506001016119ec565b5090565b90565b60008083601f8401121515611a1f57600080fd5b8235905067ffffffffffffffff811115611a3857600080fd5b602083019150836001820283011115611a5057600080fd5b9250929050565b600082601f8301121515611a6a57600080fd5b8135611a7d611a7882611ea7565b611e7a565b91508082526020830160208301858383011115611a9957600080fd5b611aa4838284611f7f565b50505092915050565b6000611ab98235611f2a565b905092915050565b60008060208385031215611ad457600080fd5b600083013567ffffffffffffffff811115611aee57600080fd5b611afa85828601611a0b565b92509250509250929050565b600060208284031215611b1857600080fd5b600082013567ffffffffffffffff811115611b3257600080fd5b611b3e84828501611a57565b91505092915050565b600080600060608486031215611b5c57600080fd5b6000611b6a86828701611aad565b935050602084013567ffffffffffffffff811115611b8757600080fd5b611b9386828701611a57565b925050604084013567ffffffffffffffff811115611bb057600080fd5b611bbc86828701611a57565b9150509250925092565b611bcf81611f37565b82525050565b611bde81611ede565b82525050565b611bed81611f49565b82525050565b6000611bfe82611ed3565b808452611c12816020860160208601611f8e565b611c1b81611fc1565b602085010191505092915050565b6000602082527f596f752063616e2774206269642c204d616b65206120686967686572204269646020830152604082019050919050565b6000601182527f41756374696f6e2043616e63656c6c65640000000000000000000000000000006020830152604082019050919050565b6000601c82527f5468652061756374696f6e20697320616c7265616479206f7665722e000000006020830152604082019050919050565b6000808252602082019050919050565b6000608083016000830151611cf66000860182611d41565b506020830151611d096020860182611d41565b506040830151611d1c6040860182611be4565b5060608301518482036060860152611d348282611bf3565b9150508091505092915050565b611d4a81611f20565b82525050565b6000604082019050611d656000830185611bc6565b611d726020830184611d41565b9392505050565b6000602082019050611d8e6000830184611bd5565b92915050565b6000602082019050611da96000830184611be4565b92915050565b60006020820190508181036000830152611dc881611c29565b9050919050565b60006040820190508181036000830152611de881611c60565b9050611df76020830184611d41565b92915050565b60006020820190508181036000830152611e1681611c97565b9050919050565b60006020820190508181036000830152611e3681611cce565b9050919050565b60006020820190508181036000830152611e578184611cde565b905092915050565b6000602082019050611e746000830184611d41565b92915050565b6000604051905081810181811067ffffffffffffffff82111715611e9d57600080fd5b8060405250919050565b600067ffffffffffffffff821115611ebe57600080fd5b601f19601f8301169050602081019050919050565b600081519050919050565b60008115159050919050565b6000600282101515611ef857fe5b819050919050565b600073ffffffffffffffffffffffffffffffffffffffff82169050919050565b6000819050919050565b600060ff82169050919050565b6000611f4282611f5b565b9050919050565b6000611f5482611eea565b9050919050565b6000611f6682611f6d565b9050919050565b6000611f7882611f00565b9050919050565b82818337600083830152505050565b60005b83811015611fac578082015181840152602081019050611f91565b83811115611fbb576000848401525b50505050565b6000601f19601f830116905091905056fea265627a7a7230582069baa688205642d69340db2603d7b46556aed0e3dd255d9b41668104e188d2356c6578706572696d656e74616cf50037",
  "source": "// SPDX-License-Identifier: MIT\npragma solidity ^0.5.1;\npragma experimental ABIEncoderV2;\nimport \"./AuctionInfo.sol\";\n\ncontract Auction is AuctionInfos {\n\n    constructor () public {\n    }\n\n    //bid\n    //\n\n    // \n    function setAuction(uint8 _minuteSet, string memory _name, string memory _number) public returns(bool){\n        require(_minuteSet > 0, \"\");\n        require(bytes(_name).length != 0, \"\");\n        require(bytes(_number).length != 0, \"\");\n\n        AuctionList[_number].auctionOwner = msg.sender;\n        AuctionList[_number].auctionStart = now;\n        AuctionList[_number].auctionEnd = AuctionList[_number].auctionStart + (_minuteSet * 1 minutes);\n        AuctionList[_number].state = auctionState.STARTED;\n        AuctionList[_number].name = _name;\n        //  X,    .\n        AuctionList[_number].number = _number;\n\n        auctionNames.push(_name);\n        return true;\n    }\n    // bid() ,      .\n    //   ,     \n    //     \n    //payable      \n    function bid(string memory _number) public payable{\n        require(now <= AuctionList[_number].auctionEnd, \"The auction is already over.\");\n        require(bids[_number][msg.sender] + msg.value > AuctionList[_number].highestBid, \"You can't bid, Make a higher Bid\");\n\n        AuctionList[_number].highestBidder = msg.sender;\n        AuctionList[_number].highestBid = msg.value;\n        bidders[_number] = msg.sender;\n        bids[_number][msg.sender] = bids[_number][msg.sender] + msg.value;\n\n        emit BidEvent(AuctionList[_number].highestBidder,AuctionList[_number].highestBid);\n\n    }\n    // cancle      \n    function cancelAuction(string calldata _number) external returns (bool){\n        require(now <= AuctionList[_number].auctionEnd, \"The auction is already over.\");\n        require(msg.sender == AuctionList[_number].auctionOwner);\n        AuctionList[_number].state = auctionState.CANCELLED;\n        emit CanceledEvent(\"Auction Cancelled\", now);\n        return true;\n    }\n\n    //withdraw()        \n    function withdraw(string memory _number) public returns (bool){\n        require(AuctionList[_number].auctionEnd < now);\n        uint amount;\n        if (msg.sender == AuctionList[_number].highestBidder && AuctionList[_number].state == auctionState.CANCELLED) {\n            amount = bids[_number][AuctionList[_number].highestBidder];\n            bids[_number][AuctionList[_number].highestBidder] = 0;\n\n            address payable payableOwner = address(uint160(AuctionList[_number].auctionOwner));\n            payableOwner.transfer(amount);\n\n            emit WithdrawalEvent(payableOwner, amount);\n        }\n        else {\n            amount = bids[_number][msg.sender];\n            bids[_number][msg.sender] = 0;\n            msg.sender.transfer(amount);\n            emit WithdrawalEvent(msg.sender, amount);\n            return true;\n        }\n\n        return true;\n    }\n\n}\n\n// //   \n/*\n    function destruct_auction() external only_owner returns (bool){\n\n       require(now > auction_end,\"You can't destruct the contract,The auction is still open\");\n       for(uint i=0;i<bidders.length;i++)\n       {\n           assert(bids[bidders[i]]==0);\n       }\n\n       //selfdestruct(auction_owner);\n       return true;\n    }\n*/\n\n//   ,      \n// view       .\n/*\n    function get_owner() public view returns(address){\n        return auction_owner;\n    }\n*/",
  "sourcePath": "C:\\Users\\sping\\OneDrive\\ \\Auction_Solidity\\truffle\\contracts\\Auction\\Auction.sol",
  "compiler": {
    "name": "solc",
    "version": "0.5.1+commit.c8a2cb62.Emscripten.clang"
  },
  "schemaVersion": "3.1.0",
  "updatedAt": "2022-03-02T07:46:02.157Z",
  "networkType": "ethereum",
  "devdoc": {
    "methods": {}
  },
  "userdoc": {
    "methods": {}
  }
}