{
  "contractName": "Auction",
  "abi": [
    {
      "constant": true,
      "inputs": [],
      "name": "STATE",
      "outputs": [
        {
          "name": "",
          "type": "uint8"
        }
      ],
      "payable": false,
      "stateMutability": "view",
      "type": "function"
    },
    {
      "anonymous": false,
      "inputs": [
        {
          "components": [
            {
              "name": "auctionOwner",
              "type": "address"
            },
            {
              "name": "auctionStart",
              "type": "uint256"
            },
            {
              "name": "auctionEnd",
              "type": "uint256"
            },
            {
              "name": "highestBid",
              "type": "uint256"
            },
            {
              "name": "highestBidder",
              "type": "address"
            },
            {
              "name": "state",
              "type": "uint8"
            },
            {
              "name": "name",
              "type": "string"
            },
            {
              "name": "number",
              "type": "string"
            }
          ],
          "indexed": false,
          "name": "auctionInfo",
          "type": "tuple"
        }
      ],
      "name": "SetAuctionEvent",
      "type": "event"
    },
    {
      "anonymous": false,
      "inputs": [
        {
          "indexed": true,
          "name": "highestBidder",
          "type": "address"
        },
        {
          "indexed": false,
          "name": "highestBid",
          "type": "uint256"
        }
      ],
      "name": "BidEvent",
      "type": "event"
    },
    {
      "anonymous": false,
      "inputs": [
        {
          "indexed": false,
          "name": "withdrawer",
          "type": "address"
        },
        {
          "indexed": false,
          "name": "amount",
          "type": "uint256"
        }
      ],
      "name": "WithdrawalEvent",
      "type": "event"
    },
    {
      "anonymous": false,
      "inputs": [
        {
          "indexed": false,
          "name": "message",
          "type": "string"
        },
        {
          "indexed": false,
          "name": "time",
          "type": "uint256"
        }
      ],
      "name": "CanceledEvent",
      "type": "event"
    },
    {
      "constant": false,
      "inputs": [
        {
          "name": "_minuteSet",
          "type": "uint16"
        },
        {
          "name": "_name",
          "type": "string"
        },
        {
          "name": "_number",
          "type": "string"
        }
      ],
      "name": "setAuction",
      "outputs": [
        {
          "name": "",
          "type": "bool"
        }
      ],
      "payable": false,
      "stateMutability": "nonpayable",
      "type": "function"
    },
    {
      "constant": false,
      "inputs": [],
      "name": "bid",
      "outputs": [
        {
          "name": "",
          "type": "bool"
        }
      ],
      "payable": true,
      "stateMutability": "payable",
      "type": "function"
    },
    {
      "constant": false,
      "inputs": [
        {
          "name": "_number",
          "type": "string"
        }
      ],
      "name": "bid",
      "outputs": [],
      "payable": true,
      "stateMutability": "payable",
      "type": "function"
    },
    {
      "constant": false,
      "inputs": [],
      "name": "cancelAuction",
      "outputs": [
        {
          "name": "",
          "type": "bool"
        }
      ],
      "payable": false,
      "stateMutability": "nonpayable",
      "type": "function"
    },
    {
      "constant": false,
      "inputs": [
        {
          "name": "_number",
          "type": "string"
        }
      ],
      "name": "cancelAuction",
      "outputs": [
        {
          "name": "",
          "type": "bool"
        }
      ],
      "payable": false,
      "stateMutability": "nonpayable",
      "type": "function"
    },
    {
      "constant": false,
      "inputs": [
        {
          "name": "_number",
          "type": "string"
        }
      ],
      "name": "withdraw",
      "outputs": [
        {
          "name": "",
          "type": "bool"
        }
      ],
      "payable": false,
      "stateMutability": "nonpayable",
      "type": "function"
    },
    {
      "constant": false,
      "inputs": [],
      "name": "withdraw",
      "outputs": [
        {
          "name": "",
          "type": "bool"
        }
      ],
      "payable": false,
      "stateMutability": "nonpayable",
      "type": "function"
    },
    {
      "constant": true,
      "inputs": [],
      "name": "getAllAuctioning",
      "outputs": [
        {
          "name": "",
          "type": "string[]"
        }
      ],
      "payable": false,
      "stateMutability": "view",
      "type": "function"
    },
    {
      "constant": true,
      "inputs": [
        {
          "name": "_number",
          "type": "string"
        }
      ],
      "name": "getNumberOfAuctioning",
      "outputs": [
        {
          "components": [
            {
              "name": "auctionStart",
              "type": "uint256"
            },
            {
              "name": "auctionEnd",
              "type": "uint256"
            },
            {
              "name": "highestBid",
              "type": "uint256"
            },
            {
              "name": "state",
              "type": "uint8"
            },
            {
              "name": "name",
              "type": "string"
            }
          ],
          "name": "",
          "type": "tuple"
        }
      ],
      "payable": false,
      "stateMutability": "view",
      "type": "function"
    },
    {
      "constant": true,
      "inputs": [
        {
          "name": "_address",
          "type": "address"
        }
      ],
      "name": "getAllAuctioningOfOwn",
      "outputs": [
        {
          "name": "",
          "type": "string[]"
        }
      ],
      "payable": false,
      "stateMutability": "view",
      "type": "function"
    }
  ],
  "bytecode": "0x608060405234801561001057600080fd5b50613593806100206000396000f3fe6080604052600436106100a9576000357c01000000000000000000000000000000000000000000000000000000009004806303b4ec60146100ae5780631998aeef146100eb5780632049472a1461010957806331fb67c2146101465780633ccfd60b146101835780634e334382146101ae5780635e3ced37146101d95780637aef951c146102165780638fa8b79014610232578063b60e7a3b1461025d578063c486456c1461029a575b600080fd5b3480156100ba57600080fd5b506100d560048036036100d09190810190612e61565b6102c5565b6040516100e2919061337a565b60405180910390f35b6100f36105f2565b6040516101009190613274565b60405180910390f35b34801561011557600080fd5b50610130600480360361012b9190810190612df3565b6105f7565b60405161013d9190613252565b60405180910390f35b34801561015257600080fd5b5061016d60048036036101689190810190612e61565b61071f565b60405161017a9190613274565b60405180910390f35b34801561018f57600080fd5b50610198611016565b6040516101a59190613274565b60405180910390f35b3480156101ba57600080fd5b506101c361101b565b6040516101d09190613252565b60405180910390f35b3480156101e557600080fd5b5061020060048036036101fb9190810190612ea2565b611104565b60405161020d9190613274565b60405180910390f35b610230600480360361022b9190810190612e61565b61176a565b005b34801561023e57600080fd5b50610247611de7565b6040516102549190613274565b60405180910390f35b34801561026957600080fd5b50610284600480360361027f9190810190612e1c565b611dec565b6040516102919190613274565b60405180910390f35b3480156102a657600080fd5b506102af612009565b6040516102bc919061328f565b60405180910390f35b6102cd612a25565b6102d5612a25565b6000836040518082805190602001908083835b60208310151561030d57805182526020820191506020810190506020830392506102e8565b6001836020036101000a0380198251168184511680821785525050505050509050019150509081526020016040518091039020600101548160000181815250506000836040518082805190602001908083835b6020831015156103855780518252602082019150602081019050602083039250610360565b6001836020036101000a0380198251168184511680821785525050505050509050019150509081526020016040518091039020600201548160200181815250506000836040518082805190602001908083835b6020831015156103fd57805182526020820191506020810190506020830392506103d8565b6001836020036101000a0380198251168184511680821785525050505050509050019150509081526020016040518091039020600301548160400181815250506000836040518082805190602001908083835b6020831015156104755780518252602082019150602081019050602083039250610450565b6001836020036101000a038019825116818451168082178552505050505050905001915050908152602001604051809103902060040160149054906101000a900460ff16816060019060018111156104c957fe5b908160018111156104d657fe5b815250506000836040518082805190602001908083835b60208310151561051257805182526020820191506020810190506020830392506104ed565b6001836020036101000a03801982511681845116808217855250505050505090500191505090815260200160405180910390206005018054600181600116156101000203166002900480601f0160208091040260200160405190810160405280929190818152602001828054600181600116156101000203166002900480156105dc5780601f106105b1576101008083540402835291602001916105dc565b820191906000526020600020905b8154815290600101906020018083116105bf57829003601f168201915b5050505050816080018190525080915050919050565b600090565b6060600560008373ffffffffffffffffffffffffffffffffffffffff1673ffffffffffffffffffffffffffffffffffffffff168152602001908152602001600020805480602002602001604051908101604052809291908181526020016000905b82821015610714578382906000526020600020018054600181600116156101000203166002900480601f0160208091040260200160405190810160405280929190818152602001828054600181600116156101000203166002900480156107005780601f106106d557610100808354040283529160200191610700565b820191906000526020600020905b8154815290600101906020018083116106e357829003601f168201915b505050505081526020019060010190610658565b505050509050919050565b6000426000836040518082805190602001908083835b60208310151561075a5780518252602082019150602081019050602083039250610735565b6001836020036101000a03801982511681845116808217855250505050505090500191505090815260200160405180910390206002015410151561079d57600080fd5b600080836040518082805190602001908083835b6020831015156107d657805182526020820191506020810190506020830392506107b1565b6001836020036101000a038019825116818451168082178552505050505050905001915050908152602001604051809103902060040160009054906101000a900473ffffffffffffffffffffffffffffffffffffffff1673ffffffffffffffffffffffffffffffffffffffff163373ffffffffffffffffffffffffffffffffffffffff161415610e32576000600181111561086d57fe5b6000846040518082805190602001908083835b6020831015156108a55780518252602082019150602081019050602083039250610880565b6001836020036101000a038019825116818451168082178552505050505050905001915050908152602001604051809103902060040160149054906101000a900460ff1660018111156108f457fe5b14151561099f576109048361201c565b5061099d6000846040518082805190602001908083835b602083101515610940578051825260208201915060208101905060208303925061091b565b6001836020036101000a038019825116818451168082178552505050505050905001915050908152602001604051809103902060000160009054906101000a900473ffffffffffffffffffffffffffffffffffffffff16846123b2565b505b6002836040518082805190602001908083835b6020831015156109d757805182526020820191506020810190506020830392506109b2565b6001836020036101000a0380198251168184511680821785525050505050509050019150509081526020016040518091039020600080856040518082805190602001908083835b602083101515610a435780518252602082019150602081019050602083039250610a1e565b6001836020036101000a038019825116818451168082178552505050505050905001915050908152602001604051809103902060040160009054906101000a900473ffffffffffffffffffffffffffffffffffffffff1673ffffffffffffffffffffffffffffffffffffffff1673ffffffffffffffffffffffffffffffffffffffff16815260200190815260200160002054905060006002846040518082805190602001908083835b602083101515610b115780518252602082019150602081019050602083039250610aec565b6001836020036101000a0380198251168184511680821785525050505050509050019150509081526020016040518091039020600080866040518082805190602001908083835b602083101515610b7d5780518252602082019150602081019050602083039250610b58565b6001836020036101000a038019825116818451168082178552505050505050905001915050908152602001604051809103902060040160009054906101000a900473ffffffffffffffffffffffffffffffffffffffff1673ffffffffffffffffffffffffffffffffffffffff1673ffffffffffffffffffffffffffffffffffffffff16815260200190815260200160002081905550600080846040518082805190602001908083835b602083101515610c4b5780518252602082019150602081019050602083039250610c26565b6001836020036101000a038019825116818451168082178552505050505050905001915050908152602001604051809103902060000160009054906101000a900473ffffffffffffffffffffffffffffffffffffffff1690508073ffffffffffffffffffffffffffffffffffffffff166108fc839081150290604051600060405180830381858888f19350505050158015610cea573d6000803e3d6000fd5b506000846040518082805190602001908083835b602083101515610d235780518252602082019150602081019050602083039250610cfe565b6001836020036101000a0380198251168184511680821785525050505050509050019150509081526020016040518091039020600080820160006101000a81549073ffffffffffffffffffffffffffffffffffffffff02191690556001820160009055600282016000905560038201600090556004820160006101000a81549073ffffffffffffffffffffffffffffffffffffffff02191690556004820160146101000a81549060ff0219169055600582016000610de19190612a60565b600682016000610df19190612a60565b50507f2f174ca282119315c59efaf21147aef438581dabdeb498198ae28964373dd8bc8183604051610e24929190613229565b60405180910390a15061100c565b6002836040518082805190602001908083835b602083101515610e6a5780518252602082019150602081019050602083039250610e45565b6001836020036101000a038019825116818451168082178552505050505050905001915050908152602001604051809103902060003373ffffffffffffffffffffffffffffffffffffffff1673ffffffffffffffffffffffffffffffffffffffff16815260200190815260200160002054905060006002846040518082805190602001908083835b602083101515610f175780518252602082019150602081019050602083039250610ef2565b6001836020036101000a038019825116818451168082178552505050505050905001915050908152602001604051809103902060003373ffffffffffffffffffffffffffffffffffffffff1673ffffffffffffffffffffffffffffffffffffffff168152602001908152602001600020819055503373ffffffffffffffffffffffffffffffffffffffff166108fc829081150290604051600060405180830381858888f19350505050158015610fd1573d6000803e3d6000fd5b507f2f174ca282119315c59efaf21147aef438581dabdeb498198ae28964373dd8bc3382604051611003929190613229565b60405180910390a15b6001915050919050565b600090565b60606003805480602002602001604051908101604052809291908181526020016000905b828210156110fb578382906000526020600020018054600181600116156101000203166002900480601f0160208091040260200160405190810160405280929190818152602001828054600181600116156101000203166002900480156110e75780601f106110bc576101008083540402835291602001916110e7565b820191906000526020600020905b8154815290600101906020018083116110ca57829003601f168201915b50505050508152602001906001019061103f565b50505050905090565b6000808461ffff1611151561114e576040517f08c379a000000000000000000000000000000000000000000000000000000000815260040161114590613338565b60405180910390fd5b6000835114151515611195576040517f08c379a000000000000000000000000000000000000000000000000000000000815260040161118c90613338565b60405180910390fd5b60008251141515156111dc576040517f08c379a00000000000000000000000000000000000000000000000000000000081526004016111d390613338565b60405180910390fd5b81805190602001206000836040518082805190602001908083835b60208310151561121c57805182526020820191506020810190506020830392506111f7565b6001836020036101000a038019825116818451168082178552505050505050905001915050908152602001604051809103902060060160405180828054600181600116156101000203166002900480156112ad5780601f1061128b5761010080835404028352918201916112ad565b820191906000526020600020905b815481529060010190602001808311611299575b50509150506040518091039020141515156112fd576040517f08c379a00000000000000000000000000000000000000000000000000000000081526004016112f4906132aa565b60405180910390fd5b600042905061130a612aa8565b610100604051908101604052803373ffffffffffffffffffffffffffffffffffffffff168152602001838152602001603c880261ffff168401815260200160008152602001600073ffffffffffffffffffffffffffffffffffffffff16815260200160018081111561137857fe5b8152602001868152602001858152509050806000856040518082805190602001908083835b6020831015156113c2578051825260208201915060208101905060208303925061139d565b6001836020036101000a038019825116818451168082178552505050505050905001915050908152602001604051809103902060008201518160000160006101000a81548173ffffffffffffffffffffffffffffffffffffffff021916908373ffffffffffffffffffffffffffffffffffffffff16021790555060208201518160010155604082015181600201556060820151816003015560808201518160040160006101000a81548173ffffffffffffffffffffffffffffffffffffffff021916908373ffffffffffffffffffffffffffffffffffffffff16021790555060a08201518160040160146101000a81548160ff021916908360018111156114c557fe5b021790555060c08201518160050190805190602001906114e6929190612b25565b5060e0820151816006019080519060200190611503929190612b25565b509050506003849080600181540180825580915050906001820390600052602060002001600090919290919091509080519060200190611544929190612ba5565b50506003805490506004856040518082805190602001908083835b602083101515611584578051825260208201915060208101905060208303925061155f565b6001836020036101000a038019825116818451168082178552505050505050905001915050908152602001604051809103902081905550600560003373ffffffffffffffffffffffffffffffffffffffff1673ffffffffffffffffffffffffffffffffffffffff168152602001908152602001600020849080600181540180825580915050906001820390600052602060002001600090919290919091509080519060200190611635929190612ba5565b5050600560003373ffffffffffffffffffffffffffffffffffffffff1673ffffffffffffffffffffffffffffffffffffffff16815260200190815260200160002080549050600660003373ffffffffffffffffffffffffffffffffffffffff1673ffffffffffffffffffffffffffffffffffffffff168152602001908152602001600020856040518082805190602001908083835b6020831015156116ef57805182526020820191506020810190506020830392506116ca565b6001836020036101000a0380198251168184511680821785525050505050509050019150509081526020016040518091039020819055507ffa698348763f129470bbb580c0fffc8b201d7aeb91b2a5c474f01c5cca9f68f7816040516117559190613358565b60405180910390a16001925050509392505050565b6000816040518082805190602001908083835b6020831015156117a2578051825260208201915060208101905060208303925061177d565b6001836020036101000a038019825116818451168082178552505050505050905001915050908152602001604051809103902060020154421115151561181d576040517f08c379a000000000000000000000000000000000000000000000000000000000815260040161181490613318565b60405180910390fd5b6000816040518082805190602001908083835b6020831015156118555780518252602082019150602081019050602083039250611830565b6001836020036101000a038019825116818451168082178552505050505050905001915050908152602001604051809103902060030154346002836040518082805190602001908083835b6020831015156118c557805182526020820191506020810190506020830392506118a0565b6001836020036101000a038019825116818451168082178552505050505050905001915050908152602001604051809103902060003373ffffffffffffffffffffffffffffffffffffffff1673ffffffffffffffffffffffffffffffffffffffff1681526020019081526020016000205401111515611979576040517f08c379a0000000000000000000000000000000000000000000000000000000008152600401611970906132ca565b60405180910390fd5b336000826040518082805190602001908083835b6020831015156119b2578051825260208201915060208101905060208303925061198d565b6001836020036101000a038019825116818451168082178552505050505050905001915050908152602001604051809103902060040160006101000a81548173ffffffffffffffffffffffffffffffffffffffff021916908373ffffffffffffffffffffffffffffffffffffffff160217905550346000826040518082805190602001908083835b602083101515611a5f5780518252602082019150602081019050602083039250611a3a565b6001836020036101000a038019825116818451168082178552505050505050905001915050908152602001604051809103902060030181905550336001826040518082805190602001908083835b602083101515611ad25780518252602082019150602081019050602083039250611aad565b6001836020036101000a038019825116818451168082178552505050505050905001915050908152602001604051809103902060006101000a81548173ffffffffffffffffffffffffffffffffffffffff021916908373ffffffffffffffffffffffffffffffffffffffff160217905550346002826040518082805190602001908083835b602083101515611b7c5780518252602082019150602081019050602083039250611b57565b6001836020036101000a038019825116818451168082178552505050505050905001915050908152602001604051809103902060003373ffffffffffffffffffffffffffffffffffffffff1673ffffffffffffffffffffffffffffffffffffffff16815260200190815260200160002054016002826040518082805190602001908083835b602083101515611c265780518252602082019150602081019050602083039250611c01565b6001836020036101000a038019825116818451168082178552505050505050905001915050908152602001604051809103902060003373ffffffffffffffffffffffffffffffffffffffff1673ffffffffffffffffffffffffffffffffffffffff168152602001908152602001600020819055506000816040518082805190602001908083835b602083101515611cd25780518252602082019150602081019050602083039250611cad565b6001836020036101000a038019825116818451168082178552505050505050905001915050908152602001604051809103902060040160009054906101000a900473ffffffffffffffffffffffffffffffffffffffff1673ffffffffffffffffffffffffffffffffffffffff167f0d993d4f8a84158f5329713d6d13ef54e77b325040c887c8b3e565cfd0cd3e216000836040518082805190602001908083835b602083101515611d985780518252602082019150602081019050602083039250611d73565b6001836020036101000a038019825116818451168082178552505050505050905001915050908152602001604051809103902060030154604051611ddc919061339c565b60405180910390a250565b600090565b60008083836040518083838082843780830192505050925050509081526020016040518091039020600201544211151515611e5c576040517f08c379a0000000000000000000000000000000000000000000000000000000008152600401611e5390613318565b60405180910390fd5b60008383604051808383808284378083019250505092505050908152602001604051809103902060000160009054906101000a900473ffffffffffffffffffffffffffffffffffffffff1673ffffffffffffffffffffffffffffffffffffffff163373ffffffffffffffffffffffffffffffffffffffff16141515611ee057600080fd5b6000808484604051808383808284378083019250505092505050908152602001604051809103902060040160146101000a81548160ff02191690836001811115611f2657fe5b0217905550611f7883838080601f016020809104026020016040519081016040528093929190818152602001838380828437600081840152601f19601f8201169050808301925050505050505061201c565b50611fc73384848080601f016020809104026020016040519081016040528093929190818152602001838380828437600081840152601f19601f820116905080830192505050505050506123b2565b507f06b08932edfa95ecf10e18f8e389c58332551bbfe5faf843ed9afb329fd1411842604051611ff791906132ea565b60405180910390a16001905092915050565b600760009054906101000a900460ff1681565b60008060016003805490500390506004836040518082805190602001908083835b602083101515612062578051825260208201915060208101905060208303925061203d565b6001836020036101000a0380198251168184511680821785525050505050509050019150509081526020016040518091039020546003805490501415156122fc57600060016004856040518082805190602001908083835b6020831015156120df57805182526020820191506020810190506020830392506120ba565b6001836020036101000a03801982511681845116808217855250505050505090500191505090815260200160405180910390205403905060038281548110151561212557fe5b9060005260206000200160038281548110151561213e57fe5b906000526020600020019080546001816001161561010002031660029004612167929190612c25565b50606060038281548110151561217957fe5b906000526020600020018054600181600116156101000203166002900480601f0160208091040260200160405190810160405280929190818152602001828054600181600116156101000203166002900480156122175780601f106121ec57610100808354040283529160200191612217565b820191906000526020600020905b8154815290600101906020018083116121fa57829003601f168201915b505050505090506004856040518082805190602001908083835b6020831015156122565780518252602082019150602081019050602083039250612231565b6001836020036101000a0380198251168184511680821785525050505050509050019150509081526020016040518091039020546004826040518082805190602001908083835b6020831015156122c2578051825260208201915060208101905060208303925061229d565b6001836020036101000a03801982511681845116808217855250505050505090500191505090815260200160405180910390208190555050505b60038181548110151561230b57fe5b9060005260206000200160006123219190612a60565b60038054809190600190036123369190612cac565b5060006004846040518082805190602001908083835b602083101515612371578051825260208201915060208101905060208303925061234c565b6001836020036101000a0380198251168184511680821785525050505050509050019150509081526020016040518091039020819055506001915050919050565b6000806001600560008673ffffffffffffffffffffffffffffffffffffffff1673ffffffffffffffffffffffffffffffffffffffff16815260200190815260200160002080549050039050600660008573ffffffffffffffffffffffffffffffffffffffff1673ffffffffffffffffffffffffffffffffffffffff168152602001908152602001600020836040518082805190602001908083835b602083101515612472578051825260208201915060208101905060208303925061244d565b6001836020036101000a038019825116818451168082178552505050505050905001915050908152602001604051809103902054600560008673ffffffffffffffffffffffffffffffffffffffff1673ffffffffffffffffffffffffffffffffffffffff168152602001908152602001600020805490501415156128b75760006001600660008773ffffffffffffffffffffffffffffffffffffffff1673ffffffffffffffffffffffffffffffffffffffff168152602001908152602001600020856040518082805190602001908083835b6020831015156125695780518252602082019150602081019050602083039250612544565b6001836020036101000a038019825116818451168082178552505050505050905001915050908152602001604051809103902054039050600560008673ffffffffffffffffffffffffffffffffffffffff1673ffffffffffffffffffffffffffffffffffffffff168152602001908152602001600020828154811015156125ec57fe5b90600052602060002001600560008773ffffffffffffffffffffffffffffffffffffffff1673ffffffffffffffffffffffffffffffffffffffff1681526020019081526020016000208281548110151561264257fe5b90600052602060002001908054600181600116156101000203166002900461266b929190612c25565b506060600560008773ffffffffffffffffffffffffffffffffffffffff1673ffffffffffffffffffffffffffffffffffffffff168152602001908152602001600020828154811015156126ba57fe5b906000526020600020018054600181600116156101000203166002900480601f0160208091040260200160405190810160405280929190818152602001828054600181600116156101000203166002900480156127585780601f1061272d57610100808354040283529160200191612758565b820191906000526020600020905b81548152906001019060200180831161273b57829003601f168201915b50505050509050600660008773ffffffffffffffffffffffffffffffffffffffff1673ffffffffffffffffffffffffffffffffffffffff168152602001908152602001600020856040518082805190602001908083835b6020831015156127d457805182526020820191506020810190506020830392506127af565b6001836020036101000a038019825116818451168082178552505050505050905001915050908152602001604051809103902054600660008873ffffffffffffffffffffffffffffffffffffffff1673ffffffffffffffffffffffffffffffffffffffff168152602001908152602001600020826040518082805190602001908083835b60208310151561287d5780518252602082019150602081019050602083039250612858565b6001836020036101000a03801982511681845116808217855250505050505090500191505090815260200160405180910390208190555050505b600560008573ffffffffffffffffffffffffffffffffffffffff1673ffffffffffffffffffffffffffffffffffffffff1681526020019081526020016000208181548110151561290357fe5b9060005260206000200160006129199190612a60565b600560008573ffffffffffffffffffffffffffffffffffffffff1673ffffffffffffffffffffffffffffffffffffffff16815260200190815260200160002080548091906001900361296b9190612cac565b506000600660008673ffffffffffffffffffffffffffffffffffffffff1673ffffffffffffffffffffffffffffffffffffffff168152602001908152602001600020846040518082805190602001908083835b6020831015156129e357805182526020820191506020810190506020830392506129be565b6001836020036101000a038019825116818451168082178552505050505050905001915050908152602001604051809103902081905550600191505092915050565b60a06040519081016040528060008152602001600081526020016000815260200160006001811115612a5357fe5b8152602001606081525090565b50805460018160011615610100020316600290046000825580601f10612a865750612aa5565b601f016020900490600052602060002090810190612aa49190612cd8565b5b50565b61010060405190810160405280600073ffffffffffffffffffffffffffffffffffffffff168152602001600081526020016000815260200160008152602001600073ffffffffffffffffffffffffffffffffffffffff16815260200160006001811115612b1157fe5b815260200160608152602001606081525090565b828054600181600116156101000203166002900490600052602060002090601f016020900481019282601f10612b6657805160ff1916838001178555612b94565b82800160010185558215612b94579182015b82811115612b93578251825591602001919060010190612b78565b5b509050612ba19190612cd8565b5090565b828054600181600116156101000203166002900490600052602060002090601f016020900481019282601f10612be657805160ff1916838001178555612c14565b82800160010185558215612c14579182015b82811115612c13578251825591602001919060010190612bf8565b5b509050612c219190612cd8565b5090565b828054600181600116156101000203166002900490600052602060002090601f016020900481019282601f10612c5e5780548555612c9b565b82800160010185558215612c9b57600052602060002091601f016020900482015b82811115612c9a578254825591600101919060010190612c7f565b5b509050612ca89190612cd8565b5090565b815481835581811115612cd357818360005260206000209182019101612cd29190612cfd565b5b505050565b612cfa91905b80821115612cf6576000816000905550600101612cde565b5090565b90565b612d2691905b80821115612d225760008181612d199190612a60565b50600101612d03565b5090565b90565b6000612d35823561349e565b905092915050565b60008083601f8401121515612d5157600080fd5b8235905067ffffffffffffffff811115612d6a57600080fd5b602083019150836001820283011115612d8257600080fd5b9250929050565b600082601f8301121515612d9c57600080fd5b8135612daf612daa826133e4565b6133b7565b91508082526020830160208301858383011115612dcb57600080fd5b612dd6838284613506565b50505092915050565b6000612deb82356134b0565b905092915050565b600060208284031215612e0557600080fd5b6000612e1384828501612d29565b91505092915050565b60008060208385031215612e2f57600080fd5b600083013567ffffffffffffffff811115612e4957600080fd5b612e5585828601612d3d565b92509250509250929050565b600060208284031215612e7357600080fd5b600082013567ffffffffffffffff811115612e8d57600080fd5b612e9984828501612d89565b91505092915050565b600080600060608486031215612eb757600080fd5b6000612ec586828701612ddf565b935050602084013567ffffffffffffffff811115612ee257600080fd5b612eee86828701612d89565b925050604084013567ffffffffffffffff811115612f0b57600080fd5b612f1786828701612d89565b9150509250925092565b612f2a816134be565b82525050565b612f3981613440565b82525050565b6000612f4a8261341d565b80845260208401935083602082028501612f6385613410565b60005b84811015612f9c578383038852612f7e838351612fcb565b9250612f8982613433565b9150602088019750600181019050612f66565b508196508694505050505092915050565b612fb681613452565b82525050565b612fc5816134d0565b82525050565b6000612fd682613428565b808452612fea816020860160208601613515565b612ff381613548565b602085010191505092915050565b6000600d82527f616c7265616479206578697374000000000000000000000000000000000000006020830152604082019050919050565b6000602082527f596f752063616e2774206269642c204d616b65206120686967686572204269646020830152604082019050919050565b6000601182527f41756374696f6e2043616e63656c6c65640000000000000000000000000000006020830152604082019050919050565b6000601c82527f5468652061756374696f6e20697320616c7265616479206f7665722e000000006020830152604082019050919050565b6000808252602082019050919050565b6000610100830160008301516131066000860182612f30565b506020830151613119602086018261321a565b50604083015161312c604086018261321a565b50606083015161313f606086018261321a565b5060808301516131526080860182612f30565b5060a083015161316560a0860182612fbc565b5060c083015184820360c086015261317d8282612fcb565b91505060e083015184820360e08601526131978282612fcb565b9150508091505092915050565b600060a0830160008301516131bc600086018261321a565b5060208301516131cf602086018261321a565b5060408301516131e2604086018261321a565b5060608301516131f56060860182612fbc565b506080830151848203608086015261320d8282612fcb565b9150508091505092915050565b61322381613494565b82525050565b600060408201905061323e6000830185612f21565b61324b602083018461321a565b9392505050565b6000602082019050818103600083015261326c8184612f3f565b905092915050565b60006020820190506132896000830184612fad565b92915050565b60006020820190506132a46000830184612fbc565b92915050565b600060208201905081810360008301526132c381613001565b9050919050565b600060208201905081810360008301526132e381613038565b9050919050565b600060408201905081810360008301526133038161306f565b9050613312602083018461321a565b92915050565b60006020820190508181036000830152613331816130a6565b9050919050565b60006020820190508181036000830152613351816130dd565b9050919050565b6000602082019050818103600083015261337281846130ed565b905092915050565b6000602082019050818103600083015261339481846131a4565b905092915050565b60006020820190506133b1600083018461321a565b92915050565b6000604051905081810181811067ffffffffffffffff821117156133da57600080fd5b8060405250919050565b600067ffffffffffffffff8211156133fb57600080fd5b601f19601f8301169050602081019050919050565b6000602082019050919050565b600081519050919050565b600081519050919050565b6000602082019050919050565b600061344b82613474565b9050919050565b60008115159050919050565b600060028210151561346c57fe5b819050919050565b600073ffffffffffffffffffffffffffffffffffffffff82169050919050565b6000819050919050565b60006134a982613474565b9050919050565b600061ffff82169050919050565b60006134c9826134e2565b9050919050565b60006134db8261345e565b9050919050565b60006134ed826134f4565b9050919050565b60006134ff82613474565b9050919050565b82818337600083830152505050565b60005b83811015613533578082015181840152602081019050613518565b83811115613542576000848401525b50505050565b6000601f19601f830116905091905056fea265627a7a723058208e8c2bd2bca904ff5dc53252b0c72fa418d67c68db42d5645d56ddd0445a0a396c6578706572696d656e74616cf50037",
  "source": "// SPDX-License-Identifier: MIT\npragma solidity ^0.5.1;\npragma experimental ABIEncoderV2;\n\nimport \"./AuctionInfo.sol\";\n//import \"openzeppelin-solidity/contracts/token/ERC721/ERC721Full.sol\";\n\ncontract Auction is AuctionInfos {\n\n\n    //    constructor() ERC721Full(\"AuctionToken\", \"ACT\") public {\n    //    }\n\n    // \n    function setAuction(uint16 _minuteSet, string memory _name, string memory _number) public returns (bool){\n        require(_minuteSet > 0, \"\");\n        require(bytes(_name).length != 0, \"\");\n        require(bytes(_number).length != 0, \"\");\n        require(keccak256(bytes(AuctionList[_number].number)) != keccak256(bytes(_number)), \"already exist\");\n\n        uint256 unixTime = now;\n\n        AuctionInfo memory auctionInfo = AuctionInfo(\n            msg.sender,\n            unixTime,\n            unixTime + (_minuteSet * 60),\n            0,\n            address(0),\n            auctionState.STARTED,\n            _name,\n            _number\n        );\n        AuctionList[_number] = auctionInfo;\n\n        //    \n        itemUnderAuction.push(_number);\n        itemUnderAuctionIndex[_number] = itemUnderAuction.length;\n\n        //     \n        itemUnderAuctionOfOwn[msg.sender].push(_number);\n        itemUnderAuctionOfOwnIndex[msg.sender][_number] = itemUnderAuctionOfOwn[msg.sender].length;\n\n        emit SetAuctionEvent(auctionInfo);\n        return true;\n    }\n    // bid() ,      .\n    //   ,     \n    //     \n    //payable      \n    function bid(string memory _number) public payable {\n        require(now <= AuctionList[_number].auctionEnd, \"The auction is already over.\");\n        require(bids[_number][msg.sender] + msg.value > AuctionList[_number].highestBid, \"You can't bid, Make a higher Bid\");\n\n        AuctionList[_number].highestBidder = msg.sender;\n        AuctionList[_number].highestBid = msg.value;\n        bidders[_number] = msg.sender;\n        bids[_number][msg.sender] = bids[_number][msg.sender] + msg.value;\n\n        emit BidEvent(AuctionList[_number].highestBidder, AuctionList[_number].highestBid);\n\n    }\n    // cancle      \n    function cancelAuction(string calldata _number) external returns (bool){\n        require(now <= AuctionList[_number].auctionEnd, \"The auction is already over.\");\n        require(msg.sender == AuctionList[_number].auctionOwner);\n        AuctionList[_number].state = auctionState.CANCELLED;\n\n        initAuction(_number);\n        initAuctionOfOwn(msg.sender, _number);\n\n        emit CanceledEvent(\"Auction Cancelled\", now);\n\n        return true;\n    }\n\n    //withdraw()        \n    function withdraw(string memory _number) public returns (bool){\n        require(AuctionList[_number].auctionEnd < now);\n        uint amount;\n        if (msg.sender == AuctionList[_number].highestBidder) {\n            if(AuctionList[_number].state != auctionState.CANCELLED){\n\n                initAuction(_number);\n                initAuctionOfOwn(AuctionList[_number].auctionOwner, _number);\n            }\n            amount = bids[_number][AuctionList[_number].highestBidder];\n            bids[_number][AuctionList[_number].highestBidder] = 0;\n\n            address payable payableOwner = address(uint160(AuctionList[_number].auctionOwner));\n            payableOwner.transfer(amount);\n\n            delete AuctionList[_number];\n            //_mint(msg.sender, _number);\n\n            emit WithdrawalEvent(payableOwner, amount);\n        }\n        else {\n            amount = bids[_number][msg.sender];\n            bids[_number][msg.sender] = 0;\n            msg.sender.transfer(amount);\n            emit WithdrawalEvent(msg.sender, amount);\n        }\n\n        return true;\n    }\n\n    function initAuction(string memory _number) private returns (bool){\n\n        //require(now > AuctionList[_number].auctionEnd, \"You can't destruct the contract,The auction is still open\");\n\n        uint256 lastIndex = itemUnderAuction.length - 1;\n\n        if (itemUnderAuction.length != itemUnderAuctionIndex[_number]) {\n            uint256 index = itemUnderAuctionIndex[_number] - 1;\n\n            itemUnderAuction[index] = itemUnderAuction[lastIndex];\n\n            string memory element = itemUnderAuction[index];\n            itemUnderAuctionIndex[element] = itemUnderAuctionIndex[_number];\n        }\n\n        delete itemUnderAuction[lastIndex];\n        itemUnderAuction.length--;\n        itemUnderAuctionIndex[_number] = 0;\n\n        return true;\n    }\n\n    function initAuctionOfOwn(address _address, string memory _number) private returns (bool){\n\n        uint256 lastIndex = itemUnderAuctionOfOwn[_address].length - 1;\n\n        if (itemUnderAuctionOfOwn[_address].length != itemUnderAuctionOfOwnIndex[_address][_number]) {\n            uint256 index = itemUnderAuctionOfOwnIndex[_address][_number] - 1;\n\n            itemUnderAuctionOfOwn[_address][index] = itemUnderAuctionOfOwn[_address][lastIndex];\n\n            string memory element = itemUnderAuctionOfOwn[_address][index];\n            itemUnderAuctionOfOwnIndex[_address][element] = itemUnderAuctionOfOwnIndex[_address][_number];\n        }\n\n        delete itemUnderAuctionOfOwn[_address][lastIndex];\n        itemUnderAuctionOfOwn[_address].length--;\n        itemUnderAuctionOfOwnIndex[_address][_number] = 0;\n\n        return true;\n    }\n    //   \n    function getAllAuctioning() public view returns (\n        string[] memory\n    ) {\n        return itemUnderAuction;\n    }\n\n    //    \n    function getNumberOfAuctioning(string memory _number) public view returns (\n        Auctioning memory\n    ) {\n        Auctioning memory result;\n        result.auctionStart = AuctionList[_number].auctionStart;\n        result.auctionEnd = AuctionList[_number].auctionEnd;\n        result.highestBid = AuctionList[_number].highestBid;\n        result.state = AuctionList[_number].state;\n        result.name = AuctionList[_number].name;\n        return result;\n    }\n    //   \n    function getAllAuctioningOfOwn(address _address) public view returns (\n        string[] memory\n    ) {\n        return itemUnderAuctionOfOwn[_address];\n    }\n}\n",
  "sourcePath": "C:\\Users\\sping\\OneDrive\\ \\Auction_Solidity\\truffle\\contracts\\Auction\\Auction.sol",
  "compiler": {
    "name": "solc",
    "version": "0.5.1+commit.c8a2cb62.Emscripten.clang"
  },
  "schemaVersion": "3.1.0",
  "updatedAt": "2022-03-03T09:45:58.841Z",
  "networkType": "ethereum",
  "devdoc": {
    "methods": {}
  },
  "userdoc": {
    "methods": {}
  }
}