{
  "contractName": "Auction",
  "abi": [
    {
      "constant": true,
      "inputs": [],
      "name": "STATE",
      "outputs": [
        {
          "name": "",
          "type": "uint8"
        }
      ],
      "payable": false,
      "stateMutability": "view",
      "type": "function"
    },
    {
      "anonymous": false,
      "inputs": [
        {
          "components": [
            {
              "name": "auctionOwner",
              "type": "address"
            },
            {
              "name": "auctionStart",
              "type": "uint256"
            },
            {
              "name": "auctionEnd",
              "type": "uint256"
            },
            {
              "name": "highestBid",
              "type": "uint256"
            },
            {
              "name": "highestBidder",
              "type": "address"
            },
            {
              "name": "state",
              "type": "uint8"
            },
            {
              "name": "name",
              "type": "string"
            },
            {
              "name": "number",
              "type": "string"
            }
          ],
          "indexed": false,
          "name": "auctionInfo",
          "type": "tuple"
        }
      ],
      "name": "SetAuctionEvent",
      "type": "event"
    },
    {
      "anonymous": false,
      "inputs": [
        {
          "indexed": true,
          "name": "highestBidder",
          "type": "address"
        },
        {
          "indexed": false,
          "name": "highestBid",
          "type": "uint256"
        }
      ],
      "name": "BidEvent",
      "type": "event"
    },
    {
      "anonymous": false,
      "inputs": [
        {
          "indexed": false,
          "name": "withdrawer",
          "type": "address"
        },
        {
          "indexed": false,
          "name": "amount",
          "type": "uint256"
        }
      ],
      "name": "WithdrawalEvent",
      "type": "event"
    },
    {
      "anonymous": false,
      "inputs": [
        {
          "indexed": false,
          "name": "message",
          "type": "string"
        },
        {
          "indexed": false,
          "name": "time",
          "type": "uint256"
        }
      ],
      "name": "CanceledEvent",
      "type": "event"
    },
    {
      "constant": false,
      "inputs": [
        {
          "name": "_minuteSet",
          "type": "uint256"
        },
        {
          "name": "_name",
          "type": "string"
        },
        {
          "name": "_number",
          "type": "string"
        }
      ],
      "name": "setAuction",
      "outputs": [
        {
          "name": "",
          "type": "bool"
        }
      ],
      "payable": false,
      "stateMutability": "nonpayable",
      "type": "function"
    },
    {
      "constant": false,
      "inputs": [],
      "name": "bid",
      "outputs": [
        {
          "name": "",
          "type": "bool"
        }
      ],
      "payable": true,
      "stateMutability": "payable",
      "type": "function"
    },
    {
      "constant": false,
      "inputs": [
        {
          "name": "_number",
          "type": "string"
        }
      ],
      "name": "bid",
      "outputs": [],
      "payable": true,
      "stateMutability": "payable",
      "type": "function"
    },
    {
      "constant": false,
      "inputs": [],
      "name": "cancelAuction",
      "outputs": [
        {
          "name": "",
          "type": "bool"
        }
      ],
      "payable": false,
      "stateMutability": "nonpayable",
      "type": "function"
    },
    {
      "constant": false,
      "inputs": [
        {
          "name": "_number",
          "type": "string"
        }
      ],
      "name": "cancelAuction",
      "outputs": [
        {
          "name": "",
          "type": "bool"
        }
      ],
      "payable": false,
      "stateMutability": "nonpayable",
      "type": "function"
    },
    {
      "constant": false,
      "inputs": [
        {
          "name": "_number",
          "type": "string"
        }
      ],
      "name": "withdraw",
      "outputs": [
        {
          "name": "",
          "type": "bool"
        }
      ],
      "payable": false,
      "stateMutability": "nonpayable",
      "type": "function"
    },
    {
      "constant": false,
      "inputs": [],
      "name": "withdraw",
      "outputs": [
        {
          "name": "",
          "type": "bool"
        }
      ],
      "payable": false,
      "stateMutability": "nonpayable",
      "type": "function"
    },
    {
      "constant": true,
      "inputs": [],
      "name": "getAllAuctioning",
      "outputs": [
        {
          "name": "",
          "type": "string[]"
        }
      ],
      "payable": false,
      "stateMutability": "view",
      "type": "function"
    },
    {
      "constant": true,
      "inputs": [
        {
          "name": "_number",
          "type": "string"
        }
      ],
      "name": "getNumberOfAuctioning",
      "outputs": [
        {
          "components": [
            {
              "name": "auctionStart",
              "type": "uint256"
            },
            {
              "name": "auctionEnd",
              "type": "uint256"
            },
            {
              "name": "highestBid",
              "type": "uint256"
            },
            {
              "name": "state",
              "type": "uint8"
            },
            {
              "name": "name",
              "type": "string"
            }
          ],
          "name": "",
          "type": "tuple"
        }
      ],
      "payable": false,
      "stateMutability": "view",
      "type": "function"
    },
    {
      "constant": true,
      "inputs": [
        {
          "name": "_address",
          "type": "address"
        }
      ],
      "name": "getAllAuctioningOfOwn",
      "outputs": [
        {
          "name": "",
          "type": "string[]"
        }
      ],
      "payable": false,
      "stateMutability": "view",
      "type": "function"
    }
  ],
  "bytecode": "0x608060405234801561001057600080fd5b50613865806100206000396000f3fe6080604052600436106100a9576000357c01000000000000000000000000000000000000000000000000000000009004806303b4ec60146100ae5780631998aeef146100eb5780632049472a1461010957806331fb67c2146101465780633ccfd60b146101835780634e334382146101ae57806359e844cb146101d95780637aef951c146102165780638fa8b79014610232578063b60e7a3b1461025d578063c486456c1461029a575b600080fd5b3480156100ba57600080fd5b506100d560048036036100d09190810190612f68565b6102c5565b6040516100e29190613650565b60405180910390f35b6100f36105f2565b60405161010091906134ca565b60405180910390f35b34801561011557600080fd5b50610130600480360361012b9190810190612efa565b6105f7565b60405161013d91906134a8565b60405180910390f35b34801561015257600080fd5b5061016d60048036036101689190810190612f68565b61071f565b60405161017a91906134ca565b60405180910390f35b34801561018f57600080fd5b50610198611018565b6040516101a591906134ca565b60405180910390f35b3480156101ba57600080fd5b506101c361101d565b6040516101d091906134a8565b60405180910390f35b3480156101e557600080fd5b5061020060048036036101fb9190810190612fa9565b611106565b60405161020d91906134ca565b60405180910390f35b610230600480360361022b9190810190612f68565b611764565b005b34801561023e57600080fd5b50610247611eb8565b60405161025491906134ca565b60405180910390f35b34801561026957600080fd5b50610284600480360361027f9190810190612f23565b611ebd565b60405161029191906134ca565b60405180910390f35b3480156102a657600080fd5b506102af612110565b6040516102bc91906134e5565b60405180910390f35b6102cd612b2c565b6102d5612b2c565b6000836040518082805190602001908083835b60208310151561030d57805182526020820191506020810190506020830392506102e8565b6001836020036101000a0380198251168184511680821785525050505050509050019150509081526020016040518091039020600101548160000181815250506000836040518082805190602001908083835b6020831015156103855780518252602082019150602081019050602083039250610360565b6001836020036101000a0380198251168184511680821785525050505050509050019150509081526020016040518091039020600201548160200181815250506000836040518082805190602001908083835b6020831015156103fd57805182526020820191506020810190506020830392506103d8565b6001836020036101000a0380198251168184511680821785525050505050509050019150509081526020016040518091039020600301548160400181815250506000836040518082805190602001908083835b6020831015156104755780518252602082019150602081019050602083039250610450565b6001836020036101000a038019825116818451168082178552505050505050905001915050908152602001604051809103902060040160149054906101000a900460ff16816060019060018111156104c957fe5b908160018111156104d657fe5b815250506000836040518082805190602001908083835b60208310151561051257805182526020820191506020810190506020830392506104ed565b6001836020036101000a03801982511681845116808217855250505050505090500191505090815260200160405180910390206005018054600181600116156101000203166002900480601f0160208091040260200160405190810160405280929190818152602001828054600181600116156101000203166002900480156105dc5780601f106105b1576101008083540402835291602001916105dc565b820191906000526020600020905b8154815290600101906020018083116105bf57829003601f168201915b5050505050816080018190525080915050919050565b600090565b6060600560008373ffffffffffffffffffffffffffffffffffffffff1673ffffffffffffffffffffffffffffffffffffffff168152602001908152602001600020805480602002602001604051908101604052809291908181526020016000905b82821015610714578382906000526020600020018054600181600116156101000203166002900480601f0160208091040260200160405190810160405280929190818152602001828054600181600116156101000203166002900480156107005780601f106106d557610100808354040283529160200191610700565b820191906000526020600020905b8154815290600101906020018083116106e357829003601f168201915b505050505081526020019060010190610658565b505050509050919050565b6000426000836040518082805190602001908083835b60208310151561075a5780518252602082019150602081019050602083039250610735565b6001836020036101000a03801982511681845116808217855250505050505090500191505090815260200160405180910390206002015410151561079d57600080fd5b600080836040518082805190602001908083835b6020831015156107d657805182526020820191506020810190506020830392506107b1565b6001836020036101000a038019825116818451168082178552505050505050905001915050908152602001604051809103902060040160009054906101000a900473ffffffffffffffffffffffffffffffffffffffff1673ffffffffffffffffffffffffffffffffffffffff163373ffffffffffffffffffffffffffffffffffffffff161480156108f957506000600181111561086f57fe5b6000846040518082805190602001908083835b6020831015156108a75780518252602082019150602081019050602083039250610882565b6001836020036101000a038019825116818451168082178552505050505050905001915050908152602001604051809103902060040160149054906101000a900460ff1660018111156108f657fe5b14155b15610e34576002836040518082805190602001908083835b6020831015156109365780518252602082019150602081019050602083039250610911565b6001836020036101000a0380198251168184511680821785525050505050509050019150509081526020016040518091039020600080856040518082805190602001908083835b6020831015156109a2578051825260208201915060208101905060208303925061097d565b6001836020036101000a038019825116818451168082178552505050505050905001915050908152602001604051809103902060040160009054906101000a900473ffffffffffffffffffffffffffffffffffffffff1673ffffffffffffffffffffffffffffffffffffffff1673ffffffffffffffffffffffffffffffffffffffff16815260200190815260200160002054905060006002846040518082805190602001908083835b602083101515610a705780518252602082019150602081019050602083039250610a4b565b6001836020036101000a0380198251168184511680821785525050505050509050019150509081526020016040518091039020600080866040518082805190602001908083835b602083101515610adc5780518252602082019150602081019050602083039250610ab7565b6001836020036101000a038019825116818451168082178552505050505050905001915050908152602001604051809103902060040160009054906101000a900473ffffffffffffffffffffffffffffffffffffffff1673ffffffffffffffffffffffffffffffffffffffff1673ffffffffffffffffffffffffffffffffffffffff16815260200190815260200160002081905550600080846040518082805190602001908083835b602083101515610baa5780518252602082019150602081019050602083039250610b85565b6001836020036101000a038019825116818451168082178552505050505050905001915050908152602001604051809103902060000160009054906101000a900473ffffffffffffffffffffffffffffffffffffffff1690508073ffffffffffffffffffffffffffffffffffffffff166108fc839081150290604051600060405180830381858888f19350505050158015610c49573d6000803e3d6000fd5b506000846040518082805190602001908083835b602083101515610c825780518252602082019150602081019050602083039250610c5d565b6001836020036101000a0380198251168184511680821785525050505050509050019150509081526020016040518091039020600080820160006101000a81549073ffffffffffffffffffffffffffffffffffffffff02191690556001820160009055600282016000905560038201600090556004820160006101000a81549073ffffffffffffffffffffffffffffffffffffffff02191690556004820160146101000a81549060ff0219169055600582016000610d409190612b67565b600682016000610d509190612b67565b5050610d5b84612123565b50610df46000856040518082805190602001908083835b602083101515610d975780518252602082019150602081019050602083039250610d72565b6001836020036101000a038019825116818451168082178552505050505050905001915050908152602001604051809103902060000160009054906101000a900473ffffffffffffffffffffffffffffffffffffffff16856124b9565b507f2f174ca282119315c59efaf21147aef438581dabdeb498198ae28964373dd8bc8183604051610e2692919061347f565b60405180910390a15061100e565b6002836040518082805190602001908083835b602083101515610e6c5780518252602082019150602081019050602083039250610e47565b6001836020036101000a038019825116818451168082178552505050505050905001915050908152602001604051809103902060003373ffffffffffffffffffffffffffffffffffffffff1673ffffffffffffffffffffffffffffffffffffffff16815260200190815260200160002054905060006002846040518082805190602001908083835b602083101515610f195780518252602082019150602081019050602083039250610ef4565b6001836020036101000a038019825116818451168082178552505050505050905001915050908152602001604051809103902060003373ffffffffffffffffffffffffffffffffffffffff1673ffffffffffffffffffffffffffffffffffffffff168152602001908152602001600020819055503373ffffffffffffffffffffffffffffffffffffffff166108fc829081150290604051600060405180830381858888f19350505050158015610fd3573d6000803e3d6000fd5b507f2f174ca282119315c59efaf21147aef438581dabdeb498198ae28964373dd8bc338260405161100592919061347f565b60405180910390a15b6001915050919050565b600090565b60606003805480602002602001604051908101604052809291908181526020016000905b828210156110fd578382906000526020600020018054600181600116156101000203166002900480601f0160208091040260200160405190810160405280929190818152602001828054600181600116156101000203166002900480156110e95780601f106110be576101008083540402835291602001916110e9565b820191906000526020600020905b8154815290600101906020018083116110cc57829003601f168201915b505050505081526020019060010190611041565b50505050905090565b6000808411151561114c576040517f08c379a0000000000000000000000000000000000000000000000000000000008152600401611143906135ee565b60405180910390fd5b6000835114151515611193576040517f08c379a000000000000000000000000000000000000000000000000000000000815260040161118a9061358e565b60405180910390fd5b60008251141515156111da576040517f08c379a00000000000000000000000000000000000000000000000000000000081526004016111d19061360e565b60405180910390fd5b81805190602001206000836040518082805190602001908083835b60208310151561121a57805182526020820191506020810190506020830392506111f5565b6001836020036101000a038019825116818451168082178552505050505050905001915050908152602001604051809103902060060160405180828054600181600116156101000203166002900480156112ab5780601f106112895761010080835404028352918201916112ab565b820191906000526020600020905b815481529060010190602001808311611297575b50509150506040518091039020141515156112fb576040517f08c379a00000000000000000000000000000000000000000000000000000000081526004016112f290613520565b60405180910390fd5b6000429050611308612baf565b610100604051908101604052803373ffffffffffffffffffffffffffffffffffffffff168152602001838152602001603c88028401815260200160008152602001600073ffffffffffffffffffffffffffffffffffffffff16815260200160018081111561137257fe5b8152602001868152602001858152509050806000856040518082805190602001908083835b6020831015156113bc5780518252602082019150602081019050602083039250611397565b6001836020036101000a038019825116818451168082178552505050505050905001915050908152602001604051809103902060008201518160000160006101000a81548173ffffffffffffffffffffffffffffffffffffffff021916908373ffffffffffffffffffffffffffffffffffffffff16021790555060208201518160010155604082015181600201556060820151816003015560808201518160040160006101000a81548173ffffffffffffffffffffffffffffffffffffffff021916908373ffffffffffffffffffffffffffffffffffffffff16021790555060a08201518160040160146101000a81548160ff021916908360018111156114bf57fe5b021790555060c08201518160050190805190602001906114e0929190612c2c565b5060e08201518160060190805190602001906114fd929190612c2c565b50905050600384908060018154018082558091505090600182039060005260206000200160009091929091909150908051906020019061153e929190612cac565b50506003805490506004856040518082805190602001908083835b60208310151561157e5780518252602082019150602081019050602083039250611559565b6001836020036101000a038019825116818451168082178552505050505050905001915050908152602001604051809103902081905550600560003373ffffffffffffffffffffffffffffffffffffffff1673ffffffffffffffffffffffffffffffffffffffff16815260200190815260200160002084908060018154018082558091505090600182039060005260206000200160009091929091909150908051906020019061162f929190612cac565b5050600560003373ffffffffffffffffffffffffffffffffffffffff1673ffffffffffffffffffffffffffffffffffffffff16815260200190815260200160002080549050600660003373ffffffffffffffffffffffffffffffffffffffff1673ffffffffffffffffffffffffffffffffffffffff168152602001908152602001600020856040518082805190602001908083835b6020831015156116e957805182526020820191506020810190506020830392506116c4565b6001836020036101000a0380198251168184511680821785525050505050509050019150509081526020016040518091039020819055507ffa698348763f129470bbb580c0fffc8b201d7aeb91b2a5c474f01c5cca9f68f78160405161174f919061362e565b60405180910390a16001925050509392505050565b6000816040518082805190602001908083835b60208310151561179c5780518252602082019150602081019050602083039250611777565b6001836020036101000a0380198251168184511680821785525050505050509050019150509081526020016040518091039020600201544211151515611817576040517f08c379a000000000000000000000000000000000000000000000000000000000815260040161180e906135ce565b60405180910390fd5b6000816040518082805190602001908083835b60208310151561184f578051825260208201915060208101905060208303925061182a565b6001836020036101000a038019825116818451168082178552505050505050905001915050908152602001604051809103902060030154346002836040518082805190602001908083835b6020831015156118bf578051825260208201915060208101905060208303925061189a565b6001836020036101000a038019825116818451168082178552505050505050905001915050908152602001604051809103902060003373ffffffffffffffffffffffffffffffffffffffff1673ffffffffffffffffffffffffffffffffffffffff1681526020019081526020016000205401111515611973576040517f08c379a000000000000000000000000000000000000000000000000000000000815260040161196a90613540565b60405180910390fd5b6000600181111561198057fe5b6000826040518082805190602001908083835b6020831015156119b85780518252602082019150602081019050602083039250611993565b6001836020036101000a038019825116818451168082178552505050505050905001915050908152602001604051809103902060040160149054906101000a900460ff166001811115611a0757fe5b14151515611a4a576040517f08c379a0000000000000000000000000000000000000000000000000000000008152600401611a41906135ae565b60405180910390fd5b336000826040518082805190602001908083835b602083101515611a835780518252602082019150602081019050602083039250611a5e565b6001836020036101000a038019825116818451168082178552505050505050905001915050908152602001604051809103902060040160006101000a81548173ffffffffffffffffffffffffffffffffffffffff021916908373ffffffffffffffffffffffffffffffffffffffff160217905550346000826040518082805190602001908083835b602083101515611b305780518252602082019150602081019050602083039250611b0b565b6001836020036101000a038019825116818451168082178552505050505050905001915050908152602001604051809103902060030181905550336001826040518082805190602001908083835b602083101515611ba35780518252602082019150602081019050602083039250611b7e565b6001836020036101000a038019825116818451168082178552505050505050905001915050908152602001604051809103902060006101000a81548173ffffffffffffffffffffffffffffffffffffffff021916908373ffffffffffffffffffffffffffffffffffffffff160217905550346002826040518082805190602001908083835b602083101515611c4d5780518252602082019150602081019050602083039250611c28565b6001836020036101000a038019825116818451168082178552505050505050905001915050908152602001604051809103902060003373ffffffffffffffffffffffffffffffffffffffff1673ffffffffffffffffffffffffffffffffffffffff16815260200190815260200160002054016002826040518082805190602001908083835b602083101515611cf75780518252602082019150602081019050602083039250611cd2565b6001836020036101000a038019825116818451168082178552505050505050905001915050908152602001604051809103902060003373ffffffffffffffffffffffffffffffffffffffff1673ffffffffffffffffffffffffffffffffffffffff168152602001908152602001600020819055506000816040518082805190602001908083835b602083101515611da35780518252602082019150602081019050602083039250611d7e565b6001836020036101000a038019825116818451168082178552505050505050905001915050908152602001604051809103902060040160009054906101000a900473ffffffffffffffffffffffffffffffffffffffff1673ffffffffffffffffffffffffffffffffffffffff167f0d993d4f8a84158f5329713d6d13ef54e77b325040c887c8b3e565cfd0cd3e216000836040518082805190602001908083835b602083101515611e695780518252602082019150602081019050602083039250611e44565b6001836020036101000a038019825116818451168082178552505050505050905001915050908152602001604051809103902060030154604051611ead9190613672565b60405180910390a250565b600090565b60008083836040518083838082843780830192505050925050509081526020016040518091039020600201544211151515611f2d576040517f08c379a0000000000000000000000000000000000000000000000000000000008152600401611f24906135ce565b60405180910390fd5b60008383604051808383808284378083019250505092505050908152602001604051809103902060000160009054906101000a900473ffffffffffffffffffffffffffffffffffffffff1673ffffffffffffffffffffffffffffffffffffffff163373ffffffffffffffffffffffffffffffffffffffff16141515611fe7576040517f08c379a0000000000000000000000000000000000000000000000000000000008152600401611fde90613500565b60405180910390fd5b6000808484604051808383808284378083019250505092505050908152602001604051809103902060040160146101000a81548160ff0219169083600181111561202d57fe5b021790555061207f83838080601f016020809104026020016040519081016040528093929190818152602001838380828437600081840152601f19601f82011690508083019250505050505050612123565b506120ce3384848080601f016020809104026020016040519081016040528093929190818152602001838380828437600081840152601f19601f820116905080830192505050505050506124b9565b507f06b08932edfa95ecf10e18f8e389c58332551bbfe5faf843ed9afb329fd14118426040516120fe9190613560565b60405180910390a16001905092915050565b600760009054906101000a900460ff1681565b60008060016003805490500390506004836040518082805190602001908083835b6020831015156121695780518252602082019150602081019050602083039250612144565b6001836020036101000a03801982511681845116808217855250505050505090500191505090815260200160405180910390205460038054905014151561240357600060016004856040518082805190602001908083835b6020831015156121e657805182526020820191506020810190506020830392506121c1565b6001836020036101000a03801982511681845116808217855250505050505090500191505090815260200160405180910390205403905060038281548110151561222c57fe5b9060005260206000200160038281548110151561224557fe5b90600052602060002001908054600181600116156101000203166002900461226e929190612d2c565b50606060038281548110151561228057fe5b906000526020600020018054600181600116156101000203166002900480601f01602080910402602001604051908101604052809291908181526020018280546001816001161561010002031660029004801561231e5780601f106122f35761010080835404028352916020019161231e565b820191906000526020600020905b81548152906001019060200180831161230157829003601f168201915b505050505090506004856040518082805190602001908083835b60208310151561235d5780518252602082019150602081019050602083039250612338565b6001836020036101000a0380198251168184511680821785525050505050509050019150509081526020016040518091039020546004826040518082805190602001908083835b6020831015156123c957805182526020820191506020810190506020830392506123a4565b6001836020036101000a03801982511681845116808217855250505050505090500191505090815260200160405180910390208190555050505b60038181548110151561241257fe5b9060005260206000200160006124289190612b67565b600380548091906001900361243d9190612db3565b5060006004846040518082805190602001908083835b6020831015156124785780518252602082019150602081019050602083039250612453565b6001836020036101000a0380198251168184511680821785525050505050509050019150509081526020016040518091039020819055506001915050919050565b6000806001600560008673ffffffffffffffffffffffffffffffffffffffff1673ffffffffffffffffffffffffffffffffffffffff16815260200190815260200160002080549050039050600660008573ffffffffffffffffffffffffffffffffffffffff1673ffffffffffffffffffffffffffffffffffffffff168152602001908152602001600020836040518082805190602001908083835b6020831015156125795780518252602082019150602081019050602083039250612554565b6001836020036101000a038019825116818451168082178552505050505050905001915050908152602001604051809103902054600560008673ffffffffffffffffffffffffffffffffffffffff1673ffffffffffffffffffffffffffffffffffffffff168152602001908152602001600020805490501415156129be5760006001600660008773ffffffffffffffffffffffffffffffffffffffff1673ffffffffffffffffffffffffffffffffffffffff168152602001908152602001600020856040518082805190602001908083835b602083101515612670578051825260208201915060208101905060208303925061264b565b6001836020036101000a038019825116818451168082178552505050505050905001915050908152602001604051809103902054039050600560008673ffffffffffffffffffffffffffffffffffffffff1673ffffffffffffffffffffffffffffffffffffffff168152602001908152602001600020828154811015156126f357fe5b90600052602060002001600560008773ffffffffffffffffffffffffffffffffffffffff1673ffffffffffffffffffffffffffffffffffffffff1681526020019081526020016000208281548110151561274957fe5b906000526020600020019080546001816001161561010002031660029004612772929190612d2c565b506060600560008773ffffffffffffffffffffffffffffffffffffffff1673ffffffffffffffffffffffffffffffffffffffff168152602001908152602001600020828154811015156127c157fe5b906000526020600020018054600181600116156101000203166002900480601f01602080910402602001604051908101604052809291908181526020018280546001816001161561010002031660029004801561285f5780601f106128345761010080835404028352916020019161285f565b820191906000526020600020905b81548152906001019060200180831161284257829003601f168201915b50505050509050600660008773ffffffffffffffffffffffffffffffffffffffff1673ffffffffffffffffffffffffffffffffffffffff168152602001908152602001600020856040518082805190602001908083835b6020831015156128db57805182526020820191506020810190506020830392506128b6565b6001836020036101000a038019825116818451168082178552505050505050905001915050908152602001604051809103902054600660008873ffffffffffffffffffffffffffffffffffffffff1673ffffffffffffffffffffffffffffffffffffffff168152602001908152602001600020826040518082805190602001908083835b602083101515612984578051825260208201915060208101905060208303925061295f565b6001836020036101000a03801982511681845116808217855250505050505090500191505090815260200160405180910390208190555050505b600560008573ffffffffffffffffffffffffffffffffffffffff1673ffffffffffffffffffffffffffffffffffffffff16815260200190815260200160002081815481101515612a0a57fe5b906000526020600020016000612a209190612b67565b600560008573ffffffffffffffffffffffffffffffffffffffff1673ffffffffffffffffffffffffffffffffffffffff168152602001908152602001600020805480919060019003612a729190612db3565b506000600660008673ffffffffffffffffffffffffffffffffffffffff1673ffffffffffffffffffffffffffffffffffffffff168152602001908152602001600020846040518082805190602001908083835b602083101515612aea5780518252602082019150602081019050602083039250612ac5565b6001836020036101000a038019825116818451168082178552505050505050905001915050908152602001604051809103902081905550600191505092915050565b60a06040519081016040528060008152602001600081526020016000815260200160006001811115612b5a57fe5b8152602001606081525090565b50805460018160011615610100020316600290046000825580601f10612b8d5750612bac565b601f016020900490600052602060002090810190612bab9190612ddf565b5b50565b61010060405190810160405280600073ffffffffffffffffffffffffffffffffffffffff168152602001600081526020016000815260200160008152602001600073ffffffffffffffffffffffffffffffffffffffff16815260200160006001811115612c1857fe5b815260200160608152602001606081525090565b828054600181600116156101000203166002900490600052602060002090601f016020900481019282601f10612c6d57805160ff1916838001178555612c9b565b82800160010185558215612c9b579182015b82811115612c9a578251825591602001919060010190612c7f565b5b509050612ca89190612ddf565b5090565b828054600181600116156101000203166002900490600052602060002090601f016020900481019282601f10612ced57805160ff1916838001178555612d1b565b82800160010185558215612d1b579182015b82811115612d1a578251825591602001919060010190612cff565b5b509050612d289190612ddf565b5090565b828054600181600116156101000203166002900490600052602060002090601f016020900481019282601f10612d655780548555612da2565b82800160010185558215612da257600052602060002091601f016020900482015b82811115612da1578254825591600101919060010190612d86565b5b509050612daf9190612ddf565b5090565b815481835581811115612dda57818360005260206000209182019101612dd99190612e04565b5b505050565b612e0191905b80821115612dfd576000816000905550600101612de5565b5090565b90565b612e2d91905b80821115612e295760008181612e209190612b67565b50600101612e0a565b5090565b90565b6000612e3c8235613774565b905092915050565b60008083601f8401121515612e5857600080fd5b8235905067ffffffffffffffff811115612e7157600080fd5b602083019150836001820283011115612e8957600080fd5b9250929050565b600082601f8301121515612ea357600080fd5b8135612eb6612eb1826136ba565b61368d565b91508082526020830160208301858383011115612ed257600080fd5b612edd8382846137d8565b50505092915050565b6000612ef28235613786565b905092915050565b600060208284031215612f0c57600080fd5b6000612f1a84828501612e30565b91505092915050565b60008060208385031215612f3657600080fd5b600083013567ffffffffffffffff811115612f5057600080fd5b612f5c85828601612e44565b92509250509250929050565b600060208284031215612f7a57600080fd5b600082013567ffffffffffffffff811115612f9457600080fd5b612fa084828501612e90565b91505092915050565b600080600060608486031215612fbe57600080fd5b6000612fcc86828701612ee6565b935050602084013567ffffffffffffffff811115612fe957600080fd5b612ff586828701612e90565b925050604084013567ffffffffffffffff81111561301257600080fd5b61301e86828701612e90565b9150509250925092565b61303181613790565b82525050565b61304081613716565b82525050565b6000613051826136f3565b8084526020840193508360208202850161306a856136e6565b60005b848110156130a35783830388526130858383516130d2565b925061309082613709565b915060208801975060018101905061306d565b508196508694505050505092915050565b6130bd81613728565b82525050565b6130cc816137a2565b82525050565b60006130dd826136fe565b8084526130f18160208601602086016137e7565b6130fa8161381a565b602085010191505092915050565b6000602b82527f6d73672e73656e64657220616e642061756374696f6e206f776e65722061726560208301527f20646966666572656e742e0000000000000000000000000000000000000000006040830152606082019050919050565b6000601f82527f5468652073616d65206e756d62657220616c7265616479206578697374732e006020830152604082019050919050565b6000602082527f596f752063616e2774206269642c204d616b65206120686967686572204269646020830152604082019050919050565b6000601182527f41756374696f6e2043616e63656c6c65640000000000000000000000000000006020830152604082019050919050565b6000601e82527f506c6561736520656e746572207468652061756374696f6e206e616d652e00006020830152604082019050919050565b6000602782527f546869732061756374696f6e2068617320616c7265616479206265656e20636160208301527f6e63656c65642e000000000000000000000000000000000000000000000000006040830152606082019050919050565b6000601c82527f5468652061756374696f6e20697320616c7265616479206f7665722e000000006020830152604082019050919050565b6000601c82527f506c6561736520736574207468652061756374696f6e2074696d652e000000006020830152604082019050919050565b6000602082527f506c6561736520656e746572207468652061756374696f6e206e756d6265722e6020830152604082019050919050565b60006101008301600083015161335c6000860182613037565b50602083015161336f6020860182613470565b5060408301516133826040860182613470565b5060608301516133956060860182613470565b5060808301516133a86080860182613037565b5060a08301516133bb60a08601826130c3565b5060c083015184820360c08601526133d382826130d2565b91505060e083015184820360e08601526133ed82826130d2565b9150508091505092915050565b600060a0830160008301516134126000860182613470565b5060208301516134256020860182613470565b5060408301516134386040860182613470565b50606083015161344b60608601826130c3565b506080830151848203608086015261346382826130d2565b9150508091505092915050565b6134798161376a565b82525050565b60006040820190506134946000830185613028565b6134a16020830184613470565b9392505050565b600060208201905081810360008301526134c28184613046565b905092915050565b60006020820190506134df60008301846130b4565b92915050565b60006020820190506134fa60008301846130c3565b92915050565b6000602082019050818103600083015261351981613108565b9050919050565b6000602082019050818103600083015261353981613165565b9050919050565b600060208201905081810360008301526135598161319c565b9050919050565b60006040820190508181036000830152613579816131d3565b90506135886020830184613470565b92915050565b600060208201905081810360008301526135a78161320a565b9050919050565b600060208201905081810360008301526135c781613241565b9050919050565b600060208201905081810360008301526135e78161329e565b9050919050565b60006020820190508181036000830152613607816132d5565b9050919050565b600060208201905081810360008301526136278161330c565b9050919050565b600060208201905081810360008301526136488184613343565b905092915050565b6000602082019050818103600083015261366a81846133fa565b905092915050565b60006020820190506136876000830184613470565b92915050565b6000604051905081810181811067ffffffffffffffff821117156136b057600080fd5b8060405250919050565b600067ffffffffffffffff8211156136d157600080fd5b601f19601f8301169050602081019050919050565b6000602082019050919050565b600081519050919050565b600081519050919050565b6000602082019050919050565b60006137218261374a565b9050919050565b60008115159050919050565b600060028210151561374257fe5b819050919050565b600073ffffffffffffffffffffffffffffffffffffffff82169050919050565b6000819050919050565b600061377f8261374a565b9050919050565b6000819050919050565b600061379b826137b4565b9050919050565b60006137ad82613734565b9050919050565b60006137bf826137c6565b9050919050565b60006137d18261374a565b9050919050565b82818337600083830152505050565b60005b838110156138055780820151818401526020810190506137ea565b83811115613814576000848401525b50505050565b6000601f19601f830116905091905056fea265627a7a72305820ea1f7a1af84154528430df1e03828402aa39049286b4c6bdd3b22a4e9794069c6c6578706572696d656e74616cf50037",
  "source": "// SPDX-License-Identifier: MIT\npragma solidity ^0.5.1;\npragma experimental ABIEncoderV2;\n\nimport \"./AuctionInfo.sol\";\n//import \"openzeppelin-solidity/contracts/token/ERC721/ERC721Full.sol\";\n\ncontract Auction is AuctionInfos {\n\n    //    constructor() ERC721Full(\"AuctionToken\", \"ACT\") public {\n    //    }\n\n    // \n    function setAuction(uint256 _minuteSet, string memory _name, string memory _number) public returns (bool){\n        require(_minuteSet > 0 , \"Please set the auction time.\");\n        require(bytes(_name).length != 0, \"Please enter the auction name.\");\n        require(bytes(_number).length != 0, \"Please enter the auction number.\");\n        require(keccak256(bytes(AuctionList[_number].number)) != keccak256(bytes(_number)), \"The same number already exists.\");\n\n        uint256 unixTime = now;\n\n        AuctionInfo memory auctionInfo = AuctionInfo(\n            msg.sender,\n            unixTime,\n            unixTime + (_minuteSet * 60),\n            0,\n            address(0),\n            auctionState.STARTED,\n            _name,\n            _number\n        );\n        AuctionList[_number] = auctionInfo;\n\n        //    \n        itemUnderAuction.push(_number);\n        itemUnderAuctionIndex[_number] = itemUnderAuction.length;\n\n        //     \n        itemUnderAuctionOfOwn[msg.sender].push(_number);\n        itemUnderAuctionOfOwnIndex[msg.sender][_number] = itemUnderAuctionOfOwn[msg.sender].length;\n\n        emit SetAuctionEvent(auctionInfo);\n        return true;\n    }\n    // bid() ,      .\n    //   ,     \n    //     \n    //payable      \n    function bid(string memory _number) public payable {\n        require(now <= AuctionList[_number].auctionEnd, \"The auction is already over.\");\n        require(bids[_number][msg.sender] + msg.value > AuctionList[_number].highestBid, \"You can't bid, Make a higher Bid\");\n        require(AuctionList[_number].state != auctionState.CANCELLED, \"This auction has already been canceled.\");\n\n        AuctionList[_number].highestBidder = msg.sender;\n        AuctionList[_number].highestBid = msg.value;\n        bidders[_number] = msg.sender;\n        bids[_number][msg.sender] = bids[_number][msg.sender] + msg.value;\n\n        emit BidEvent(AuctionList[_number].highestBidder, AuctionList[_number].highestBid);\n\n    }\n    // cancle      \n    //  ,      (2 )\n    // 1.   ,   2.  \n    function cancelAuction(string calldata _number) external returns (bool){\n        require(now <= AuctionList[_number].auctionEnd, \"The auction is already over.\");\n        require(msg.sender == AuctionList[_number].auctionOwner, \"msg.sender and auction owner are different.\");\n\n        AuctionList[_number].state = auctionState.CANCELLED;\n\n        initAuction(_number);\n        initAuctionOfOwn(msg.sender, _number);\n\n        emit CanceledEvent(\"Auction Cancelled\", now);\n\n        return true;\n    }\n\n    //withdraw()        \n    function withdraw(string memory _number) public returns (bool){\n        require(AuctionList[_number].auctionEnd < now);\n\n        uint amount;\n        if (msg.sender == AuctionList[_number].highestBidder && AuctionList[_number].state != auctionState.CANCELLED) {\n\n            amount = bids[_number][AuctionList[_number].highestBidder];\n            bids[_number][AuctionList[_number].highestBidder] = 0;\n\n            address payable payableOwner = address(uint160(AuctionList[_number].auctionOwner));\n            payableOwner.transfer(amount);\n\n            delete AuctionList[_number];\n            initAuction(_number);\n            initAuctionOfOwn(AuctionList[_number].auctionOwner, _number);\n            //_mint(msg.sender, _number);\n\n            emit WithdrawalEvent(payableOwner, amount);\n        }\n        else {\n            amount = bids[_number][msg.sender];\n            bids[_number][msg.sender] = 0;\n            msg.sender.transfer(amount);\n            emit WithdrawalEvent(msg.sender, amount);\n        }\n\n        return true;\n    }\n\n    function initAuction(string memory _number) private returns (bool){\n\n        uint256 lastIndex = itemUnderAuction.length - 1;\n\n        if (itemUnderAuction.length != itemUnderAuctionIndex[_number]) {\n            uint256 index = itemUnderAuctionIndex[_number] - 1;\n\n            itemUnderAuction[index] = itemUnderAuction[lastIndex];\n\n            string memory element = itemUnderAuction[index];\n            itemUnderAuctionIndex[element] = itemUnderAuctionIndex[_number];\n        }\n\n        delete itemUnderAuction[lastIndex];\n        itemUnderAuction.length--;\n        itemUnderAuctionIndex[_number] = 0;\n\n        return true;\n    }\n\n    function initAuctionOfOwn(address _address, string memory _number) private returns (bool){\n\n        uint256 lastIndex = itemUnderAuctionOfOwn[_address].length - 1;\n\n        if (itemUnderAuctionOfOwn[_address].length != itemUnderAuctionOfOwnIndex[_address][_number]) {\n            uint256 index = itemUnderAuctionOfOwnIndex[_address][_number] - 1;\n\n            itemUnderAuctionOfOwn[_address][index] = itemUnderAuctionOfOwn[_address][lastIndex];\n\n            string memory element = itemUnderAuctionOfOwn[_address][index];\n            itemUnderAuctionOfOwnIndex[_address][element] = itemUnderAuctionOfOwnIndex[_address][_number];\n        }\n\n        delete itemUnderAuctionOfOwn[_address][lastIndex];\n        itemUnderAuctionOfOwn[_address].length--;\n        itemUnderAuctionOfOwnIndex[_address][_number] = 0;\n\n        return true;\n    }\n    //   \n    function getAllAuctioning() public view returns (\n        string[] memory\n    ) {\n        return itemUnderAuction;\n    }\n\n    //    \n    function getNumberOfAuctioning(string memory _number) public view returns (\n        Auctioning memory\n    ) {\n        Auctioning memory result;\n        result.auctionStart = AuctionList[_number].auctionStart;\n        result.auctionEnd = AuctionList[_number].auctionEnd;\n        result.highestBid = AuctionList[_number].highestBid;\n        result.state = AuctionList[_number].state;\n        result.name = AuctionList[_number].name;\n        return result;\n    }\n    //   \n    function getAllAuctioningOfOwn(address _address) public view returns (\n        string[] memory\n    ) {\n        return itemUnderAuctionOfOwn[_address];\n    }\n}\n",
  "sourcePath": "C:\\Users\\sping\\OneDrive\\ \\Auction_Solidity\\truffle\\contracts\\Auction\\Auction.sol",
  "compiler": {
    "name": "solc",
    "version": "0.5.1+commit.c8a2cb62.Emscripten.clang"
  },
  "schemaVersion": "3.1.0",
  "updatedAt": "2022-03-04T15:20:52.087Z",
  "networkType": "ethereum",
  "devdoc": {
    "methods": {}
  },
  "userdoc": {
    "methods": {}
  }
}