{
  "contractName": "Auction",
  "abi": [
    {
      "constant": true,
      "inputs": [
        {
          "name": "",
          "type": "address"
        }
      ],
      "name": "bids",
      "outputs": [
        {
          "name": "",
          "type": "uint256"
        }
      ],
      "payable": false,
      "stateMutability": "view",
      "type": "function"
    },
    {
      "constant": true,
      "inputs": [],
      "name": "auction_start",
      "outputs": [
        {
          "name": "",
          "type": "uint256"
        }
      ],
      "payable": false,
      "stateMutability": "view",
      "type": "function"
    },
    {
      "constant": true,
      "inputs": [],
      "name": "highestBidder",
      "outputs": [
        {
          "name": "",
          "type": "address"
        }
      ],
      "payable": false,
      "stateMutability": "view",
      "type": "function"
    },
    {
      "constant": true,
      "inputs": [],
      "name": "auction_end",
      "outputs": [
        {
          "name": "",
          "type": "uint256"
        }
      ],
      "payable": false,
      "stateMutability": "view",
      "type": "function"
    },
    {
      "constant": true,
      "inputs": [],
      "name": "STATE",
      "outputs": [
        {
          "name": "",
          "type": "uint8"
        }
      ],
      "payable": false,
      "stateMutability": "view",
      "type": "function"
    },
    {
      "constant": true,
      "inputs": [],
      "name": "AuctionList",
      "outputs": [
        {
          "name": "Name",
          "type": "string"
        },
        {
          "name": "Number",
          "type": "string"
        }
      ],
      "payable": false,
      "stateMutability": "view",
      "type": "function"
    },
    {
      "constant": true,
      "inputs": [],
      "name": "highestBid",
      "outputs": [
        {
          "name": "",
          "type": "uint256"
        }
      ],
      "payable": false,
      "stateMutability": "view",
      "type": "function"
    },
    {
      "inputs": [],
      "payable": false,
      "stateMutability": "nonpayable",
      "type": "constructor"
    },
    {
      "anonymous": false,
      "inputs": [
        {
          "indexed": true,
          "name": "highestBidder",
          "type": "address"
        },
        {
          "indexed": false,
          "name": "highestBid",
          "type": "uint256"
        }
      ],
      "name": "BidEvent",
      "type": "event"
    },
    {
      "anonymous": false,
      "inputs": [
        {
          "indexed": false,
          "name": "withdrawer",
          "type": "address"
        },
        {
          "indexed": false,
          "name": "amount",
          "type": "uint256"
        }
      ],
      "name": "WithdrawalEvent",
      "type": "event"
    },
    {
      "anonymous": false,
      "inputs": [
        {
          "indexed": false,
          "name": "message",
          "type": "string"
        },
        {
          "indexed": false,
          "name": "time",
          "type": "uint256"
        }
      ],
      "name": "CanceledEvent",
      "type": "event"
    },
    {
      "constant": false,
      "inputs": [],
      "name": "bid",
      "outputs": [
        {
          "name": "",
          "type": "bool"
        }
      ],
      "payable": true,
      "stateMutability": "payable",
      "type": "function"
    },
    {
      "constant": false,
      "inputs": [],
      "name": "cancel_auction",
      "outputs": [
        {
          "name": "",
          "type": "bool"
        }
      ],
      "payable": false,
      "stateMutability": "nonpayable",
      "type": "function"
    },
    {
      "constant": false,
      "inputs": [],
      "name": "withdraw",
      "outputs": [
        {
          "name": "",
          "type": "bool"
        }
      ],
      "payable": false,
      "stateMutability": "nonpayable",
      "type": "function"
    }
  ],
  "bytecode": "0x608060405234801561001057600080fd5b50336000806101000a81548173ffffffffffffffffffffffffffffffffffffffff021916908373ffffffffffffffffffffffffffffffffffffffff1602179055504260018190555061012c600154016002819055506001600960006101000a81548160ff0219169083600181111561008457fe5b02179055506040805190810160405280600f81526020017f6c696d697465642065646974696f6e0000000000000000000000000000000000815250600560000190805190602001906100d792919061012c565b506040805190810160405280600481526020017f31323334000000000000000000000000000000000000000000000000000000008152506005600101908051906020019061012692919061012c565b506101d1565b828054600181600116156101000203166002900490600052602060002090601f016020900481019282601f1061016d57805160ff191683800117855561019b565b8280016001018555821561019b579182015b8281111561019a57825182559160200191906001019061017f565b5b5090506101a891906101ac565b5090565b6101ce91905b808211156101ca5760008160009055506001016101b2565b5090565b90565b610c92806101e06000396000f3fe60806040526004361061009e576000357c0100000000000000000000000000000000000000000000000000000000900480631998aeef146100a35780633ba88ca1146100c55780633ccfd60b146100f457806362ea82db1461012357806378f453401461018857806391f90157146101b3578063c458b65a1461020a578063c486456c14610235578063d1bd0a781461026e578063d57bde791461036a575b600080fd5b6100ab610395565b604051808215151515815260200191505060405180910390f35b3480156100d157600080fd5b506100da61060e565b604051808215151515815260200191505060405180910390f35b34801561010057600080fd5b50610109610717565b604051808215151515815260200191505060405180910390f35b34801561012f57600080fd5b506101726004803603602081101561014657600080fd5b81019080803573ffffffffffffffffffffffffffffffffffffffff169060200190929190505050610ac1565b6040518082815260200191505060405180910390f35b34801561019457600080fd5b5061019d610ad9565b6040518082815260200191505060405180910390f35b3480156101bf57600080fd5b506101c8610adf565b604051808273ffffffffffffffffffffffffffffffffffffffff1673ffffffffffffffffffffffffffffffffffffffff16815260200191505060405180910390f35b34801561021657600080fd5b5061021f610b05565b6040518082815260200191505060405180910390f35b34801561024157600080fd5b5061024a610b0b565b6040518082600181111561025a57fe5b60ff16815260200191505060405180910390f35b34801561027a57600080fd5b50610283610b1e565b604051808060200180602001838103835285818151815260200191508051906020019080838360005b838110156102c75780820151818401526020810190506102ac565b50505050905090810190601f1680156102f45780820380516001836020036101000a031916815260200191505b50838103825284818151815260200191508051906020019080838360005b8381101561032d578082015181840152602081019050610312565b50505050905090810190601f16801561035a5780820380516001836020036101000a031916815260200191505b5094505050505060405180910390f35b34801561037657600080fd5b5061037f610c60565b6040518082815260200191505060405180910390f35b600060025442111515156103a857600080fd5b60035434600860003373ffffffffffffffffffffffffffffffffffffffff1673ffffffffffffffffffffffffffffffffffffffff1681526020019081526020016000205401111515610462576040517f08c379a00000000000000000000000000000000000000000000000000000000081526004018080602001828103825260208152602001807f596f752063616e2774206269642c204d616b652061206869676865722042696481525060200191505060405180910390fd5b33600460006101000a81548173ffffffffffffffffffffffffffffffffffffffff021916908373ffffffffffffffffffffffffffffffffffffffff1602179055503460038190555060073390806001815401808255809150509060018203906000526020600020016000909192909190916101000a81548173ffffffffffffffffffffffffffffffffffffffff021916908373ffffffffffffffffffffffffffffffffffffffff1602179055505034600860003373ffffffffffffffffffffffffffffffffffffffff1673ffffffffffffffffffffffffffffffffffffffff1681526020019081526020016000205401600860003373ffffffffffffffffffffffffffffffffffffffff1673ffffffffffffffffffffffffffffffffffffffff16815260200190815260200160002081905550600460009054906101000a900473ffffffffffffffffffffffffffffffffffffffff1673ffffffffffffffffffffffffffffffffffffffff167f0d993d4f8a84158f5329713d6d13ef54e77b325040c887c8b3e565cfd0cd3e216003546040518082815260200191505060405180910390a26001905090565b60008060009054906101000a900473ffffffffffffffffffffffffffffffffffffffff1673ffffffffffffffffffffffffffffffffffffffff163373ffffffffffffffffffffffffffffffffffffffff1614151561066b57600080fd5b600254421115151561067c57600080fd5b6000600960006101000a81548160ff0219169083600181111561069b57fe5b02179055507f06b08932edfa95ecf10e18f8e389c58332551bbfe5faf843ed9afb329fd14118426040518080602001838152602001828103825260118152602001807f41756374696f6e2043616e63656c6c65640000000000000000000000000000008152506020019250505060405180910390a16001905090565b60004260025410151561072957600080fd5b6000600460009054906101000a900473ffffffffffffffffffffffffffffffffffffffff1673ffffffffffffffffffffffffffffffffffffffff163373ffffffffffffffffffffffffffffffffffffffff1614806107ac57506000600181111561078f57fe5b600960009054906101000a900460ff1660018111156107aa57fe5b145b156109755760086000600460009054906101000a900473ffffffffffffffffffffffffffffffffffffffff1673ffffffffffffffffffffffffffffffffffffffff1673ffffffffffffffffffffffffffffffffffffffff168152602001908152602001600020549050600060086000600460009054906101000a900473ffffffffffffffffffffffffffffffffffffffff1673ffffffffffffffffffffffffffffffffffffffff1673ffffffffffffffffffffffffffffffffffffffff168152602001908152602001600020819055506000809054906101000a900473ffffffffffffffffffffffffffffffffffffffff1673ffffffffffffffffffffffffffffffffffffffff166108fc829081150290604051600060405180830381858888f193505050501580156108e3573d6000803e3d6000fd5b507f2f174ca282119315c59efaf21147aef438581dabdeb498198ae28964373dd8bc6000809054906101000a900473ffffffffffffffffffffffffffffffffffffffff1682604051808373ffffffffffffffffffffffffffffffffffffffff1673ffffffffffffffffffffffffffffffffffffffff1681526020018281526020019250505060405180910390a1610ab8565b600860003373ffffffffffffffffffffffffffffffffffffffff1673ffffffffffffffffffffffffffffffffffffffff1681526020019081526020016000205490506000600860003373ffffffffffffffffffffffffffffffffffffffff1673ffffffffffffffffffffffffffffffffffffffff168152602001908152602001600020819055503373ffffffffffffffffffffffffffffffffffffffff166108fc829081150290604051600060405180830381858888f19350505050158015610a42573d6000803e3d6000fd5b507f2f174ca282119315c59efaf21147aef438581dabdeb498198ae28964373dd8bc3382604051808373ffffffffffffffffffffffffffffffffffffffff1673ffffffffffffffffffffffffffffffffffffffff1681526020018281526020019250505060405180910390a16001915050610abe565b60019150505b90565b60086020528060005260406000206000915090505481565b60015481565b600460009054906101000a900473ffffffffffffffffffffffffffffffffffffffff1681565b60025481565b600960009054906101000a900460ff1681565b6005806000018054600181600116156101000203166002900480601f016020809104026020016040519081016040528092919081815260200182805460018160011615610100020316600290048015610bb85780601f10610b8d57610100808354040283529160200191610bb8565b820191906000526020600020905b815481529060010190602001808311610b9b57829003601f168201915b505050505090806001018054600181600116156101000203166002900480601f016020809104026020016040519081016040528092919081815260200182805460018160011615610100020316600290048015610c565780601f10610c2b57610100808354040283529160200191610c56565b820191906000526020600020905b815481529060010190602001808311610c3957829003601f168201915b5050505050905082565b6003548156fea165627a7a72305820d48da684be5ddaf0f8c8a6fd96a2f5e21a51623d661b7aebe5fc13c4d038e0120029",
  "source": "// SPDX-License-Identifier: MIT\npragma solidity ^0.5.1;\n\nimport \"./AuctionInfo.sol\";\n\ncontract Auction is AuctionInfo {\n\n    constructor () public {\n        auction_owner = msg.sender;\n        auction_start = now;\n        auction_end = auction_start + 5 * 1  minutes;\n        STATE = auction_state.STARTED;\n        AuctionList.Name = 'limited edition';\n        AuctionList.Number = '1234';\n    }\n\n    // bid() 호가, 즉 참가자가 매수 신청액을 지정하는데 사용.\n    //경매의 호가는 누적 방식, 즉 최고가를 부른 참가자를 이기려면\n    //다음번 호가에서 절대금액이 아니라 추가분을 불러야함\n    //payable 이지정자는 함수가 이더를 받을수 있음을 뜻함\n    function bid() public payable an_ongoing_auction returns (bool){\n\n        require(bids[msg.sender] + msg.value > highestBid, \"You can't bid, Make a higher Bid\");\n        highestBidder = msg.sender;\n        highestBid = msg.value;\n        bidders.push(msg.sender);\n        bids[msg.sender] = bids[msg.sender] + msg.value;\n\n        emit BidEvent(highestBidder, highestBid);\n\n        return true;\n    }\n    // cancle 경매 소유자가 자신이 시작한 경매를 취소\n    function cancel_auction() external only_owner an_ongoing_auction returns (bool){\n\n        STATE = auction_state.CANCELLED;\n        emit CanceledEvent(\"Auction Cancelled\", now);\n        return true;\n    }\n    // // 블록체인에서 경매계약을 제거\n    // function destruct_auction() external only_owner returns (bool){\n\n    //     require(now > auction_end,\"You can't destruct the contract,The auction is still open\");\n    //     for(uint i=0;i<bidders.length;i++)\n    //     {\n    //         assert(bids[bidders[i]]==0);\n    //     }\n\n    //     //selfdestruct(auction_owner);\n    //     return true;\n\n    //}\n\n    //withdraw() 경매가 끝났을때 참가자가 자신의 매수 신청액을 회수하는데 사용\n    // function withdraw() public returns (bool){\n    //     require(now > auction_end ,\"You can't withdraw, the auction is still open\");\n    //     uint amount;\n\n    //     amount=bids[msg.sender];\n    //     bids[msg.sender]=0;\n    //     msg.sender.transfer(amount);\n    //     emit WithdrawalEvent(msg.sender, amount);\n    //     return true;\n\n    // }\n    function withdraw() public returns (bool){\n        require(auction_end < now);\n        uint amount;\n        if (msg.sender == highestBidder || STATE == auction_state.CANCELLED) {\n            amount = bids[highestBidder];\n            bids[highestBidder] = 0;\n            auction_owner.transfer(amount);\n            emit WithdrawalEvent(auction_owner, amount);\n        }\n        else {\n            amount = bids[msg.sender];\n            bids[msg.sender] = 0;\n            msg.sender.transfer(amount);\n            emit WithdrawalEvent(msg.sender, amount);\n            return true;\n        }\n\n        return true;\n    }\n\n    // 경매소유자의 이더리움 주소, 경매가 끝난 후 경매금을 송금할 주소\n    //view  이들은 함수가 계약상태를 변경하지 못함을 나타냄.\n    // function get_owner() public view returns(address){\n    //     return auction_owner;\n    // }\n}\n\n\n",
  "sourcePath": "C:\\Users\\sping\\OneDrive\\바탕 화면\\Auction_Solidity\\truffle\\contracts\\Auction\\Auction.sol",
  "compiler": {
    "name": "solc",
    "version": "0.5.1+commit.c8a2cb62.Emscripten.clang"
  },
  "schemaVersion": "3.1.0",
  "updatedAt": "2022-02-28T13:27:42.570Z",
  "networkType": "ethereum",
  "devdoc": {
    "methods": {}
  },
  "userdoc": {
    "methods": {}
  }
}