{
  "contractName": "AuctionInfos",
  "abi": [
    {
      "constant": true,
      "inputs": [],
      "name": "STATE",
      "outputs": [
        {
          "name": "",
          "type": "uint8"
        }
      ],
      "payable": false,
      "stateMutability": "view",
      "type": "function"
    },
    {
      "anonymous": false,
      "inputs": [
        {
          "indexed": true,
          "name": "highestBidder",
          "type": "address"
        },
        {
          "indexed": false,
          "name": "highestBid",
          "type": "uint256"
        }
      ],
      "name": "BidEvent",
      "type": "event"
    },
    {
      "anonymous": false,
      "inputs": [
        {
          "indexed": false,
          "name": "withdrawer",
          "type": "address"
        },
        {
          "indexed": false,
          "name": "amount",
          "type": "uint256"
        }
      ],
      "name": "WithdrawalEvent",
      "type": "event"
    },
    {
      "anonymous": false,
      "inputs": [
        {
          "indexed": false,
          "name": "message",
          "type": "string"
        },
        {
          "indexed": false,
          "name": "time",
          "type": "uint256"
        }
      ],
      "name": "CanceledEvent",
      "type": "event"
    },
    {
      "constant": true,
      "inputs": [
        {
          "name": "_number",
          "type": "string"
        }
      ],
      "name": "getNumberOfAuctioning",
      "outputs": [
        {
          "components": [
            {
              "name": "auctionEnd",
              "type": "uint256"
            },
            {
              "name": "highestBid",
              "type": "uint256"
            },
            {
              "name": "state",
              "type": "uint8"
            },
            {
              "name": "name",
              "type": "string"
            }
          ],
          "name": "",
          "type": "tuple"
        }
      ],
      "payable": false,
      "stateMutability": "view",
      "type": "function"
    },
    {
      "constant": false,
      "inputs": [],
      "name": "bid",
      "outputs": [
        {
          "name": "",
          "type": "bool"
        }
      ],
      "payable": true,
      "stateMutability": "payable",
      "type": "function"
    },
    {
      "constant": false,
      "inputs": [],
      "name": "withdraw",
      "outputs": [
        {
          "name": "",
          "type": "bool"
        }
      ],
      "payable": false,
      "stateMutability": "nonpayable",
      "type": "function"
    },
    {
      "constant": false,
      "inputs": [],
      "name": "cancelAuction",
      "outputs": [
        {
          "name": "",
          "type": "bool"
        }
      ],
      "payable": false,
      "stateMutability": "nonpayable",
      "type": "function"
    }
  ],
  "bytecode": "0x608060405234801561001057600080fd5b50610737806100206000396000f3fe608060405260043610610067576000357c01000000000000000000000000000000000000000000000000000000009004806303b4ec601461006c5780631998aeef146100a95780633ccfd60b146100c75780638fa8b790146100f2578063c486456c1461011d575b600080fd5b34801561007857600080fd5b50610093600480360361008e91908101906104a9565b610148565b6040516100a091906105e6565b60405180910390f35b6100b16103fd565b6040516100be91906105b0565b60405180910390f35b3480156100d357600080fd5b506100dc610402565b6040516100e991906105b0565b60405180910390f35b3480156100fe57600080fd5b50610107610407565b60405161011491906105b0565b60405180910390f35b34801561012957600080fd5b5061013261040c565b60405161013f91906105cb565b60405180910390f35b61015061041f565b61015861041f565b6000836040518082805190602001908083835b602083101515610190578051825260208201915060208101905060208303925061016b565b6001836020036101000a0380198251168184511680821785525050505050509050019150509081526020016040518091039020600201548160000181815250506000836040518082805190602001908083835b60208310151561020857805182526020820191506020810190506020830392506101e3565b6001836020036101000a0380198251168184511680821785525050505050509050019150509081526020016040518091039020600301548160200181815250506000836040518082805190602001908083835b602083101515610280578051825260208201915060208101905060208303925061025b565b6001836020036101000a038019825116818451168082178552505050505050905001915050908152602001604051809103902060040160149054906101000a900460ff16816040019060018111156102d457fe5b908160018111156102e157fe5b815250506000836040518082805190602001908083835b60208310151561031d57805182526020820191506020810190506020830392506102f8565b6001836020036101000a03801982511681845116808217855250505050505090500191505090815260200160405180910390206005018054600181600116156101000203166002900480601f0160208091040260200160405190810160405280929190818152602001828054600181600116156101000203166002900480156103e75780601f106103bc576101008083540402835291602001916103e7565b820191906000526020600020905b8154815290600101906020018083116103ca57829003601f168201915b5050505050816060018190525080915050919050565b600090565b600090565b600090565b600460009054906101000a900460ff1681565b60806040519081016040528060008152602001600081526020016000600181111561044657fe5b8152602001606081525090565b600082601f830112151561046657600080fd5b813561047961047482610635565b610608565b9150808252602083016020830185838301111561049557600080fd5b6104a08382846106aa565b50505092915050565b6000602082840312156104bb57600080fd5b600082013567ffffffffffffffff8111156104d557600080fd5b6104e184828501610453565b91505092915050565b6104f38161066c565b82525050565b61050281610698565b82525050565b600061051382610661565b8084526105278160208601602086016106b9565b610530816106ec565b602085010191505092915050565b600060808301600083015161055660008601826105a1565b50602083015161056960208601826105a1565b50604083015161057c60408601826104f9565b50606083015184820360608601526105948282610508565b9150508091505092915050565b6105aa8161068e565b82525050565b60006020820190506105c560008301846104ea565b92915050565b60006020820190506105e060008301846104f9565b92915050565b60006020820190508181036000830152610600818461053e565b905092915050565b6000604051905081810181811067ffffffffffffffff8211171561062b57600080fd5b8060405250919050565b600067ffffffffffffffff82111561064c57600080fd5b601f19601f8301169050602081019050919050565b600081519050919050565b60008115159050919050565b600060028210151561068657fe5b819050919050565b6000819050919050565b60006106a382610678565b9050919050565b82818337600083830152505050565b60005b838110156106d75780820151818401526020810190506106bc565b838111156106e6576000848401525b50505050565b6000601f19601f830116905091905056fea265627a7a72305820730b207fd7575e1bf3ede64d48892893bd961ed92b6d08cbfb595d75eaad5b0d6c6578706572696d656e74616cf50037",
  "source": "// SPDX-License-Identifier: MIT\npragma solidity ^0.5.1;\npragma experimental ABIEncoderV2;\n\ncontract AuctionInfos {\n\n    //  address payable internal auctionOwner;     // 경매소유자의 이더리움 주소, 경매가 끝난 후 경매금을 송금할 주소\n    //  uint256 public auctionStart;               //경매 시작 시간\n    //  uint256 public auctionEnd;                 //경매 종료 시간\n    //  uint256 public highestBid;                 //현재 최대 매수 금액\n    //  address public highestBidder;              //최대 매수 금액을 신청한 참가자의 이더리움 주소\n\n    //경매 상태(진행중, 취소)나타냄\n    enum auctionState{\n        CANCELLED, STARTED\n    }\n\n    struct AuctionInfo {\n        address auctionOwner;          // 경매소유자의 이더리움 주소, 경매가 끝난 후 경매금을 송금할 주소\n        uint256 auctionStart;          //경매 시작 시간\n        uint256 auctionEnd;            //경매 종료 시간\n        uint256 highestBid;            //현재 최대 매수 금액\n        address highestBidder;         //최대 매수 금액을 신청한 참가자의 이더리움 주소\n        auctionState state;\n        string name;\n        string number;\n    }\n\n    struct Auctioning {\n        uint256 auctionEnd;\n        uint256 highestBid;\n        auctionState state;\n        string name;\n    }\n\n    mapping(string => AuctionInfo)  AuctionList;\n\n    //모든 신청자의 주소 배열\n    mapping(string => address) bidders;\n\n    //각매수 신청자의 주소를 총 매수 신청액에 사상하는 매칭\n    mapping(string => mapping(address => uint))  bids;\n\n    //현재 경매중인 물품 목록\n    string[] auctionNames;\n\n    auctionState public STATE;\n\n    //모든 경매중인 목록 검색\n    //        function getAllAuctioning() public view returns (\n    //            allAuctioning memory\n    //        ) {\n    //            allAuctioning memory result;\n    //\n    //            result. =;\n    //            result. =;\n    //            result. =;\n    //            return result;\n    //        }\n\n    //해당 경매중인 물품 상세 검색\n    function getNumberOfAuctioning(string memory _number) public view returns (\n        Auctioning memory\n    ) {\n        Auctioning memory result;\n        result.auctionEnd = AuctionList[_number].auctionEnd;\n        result.highestBid = AuctionList[_number].highestBid;\n        result.state = AuctionList[_number].state;\n        result.name = AuctionList[_number].name;\n        return result;\n    }\n\n    function bid() public payable returns (bool){}\n\n    function withdraw() public returns (bool){}\n\n    function cancelAuction() external returns (bool){}\n\n    event BidEvent(address indexed highestBidder, uint256 highestBid);\n    event WithdrawalEvent(address withdrawer, uint256 amount);\n    event CanceledEvent(string message, uint256 time);\n\n}",
  "sourcePath": "C:\\Users\\sping\\OneDrive\\바탕 화면\\Auction_Solidity\\truffle\\contracts\\Auction\\AuctionInfo.sol",
  "compiler": {
    "name": "solc",
    "version": "0.5.1+commit.c8a2cb62.Emscripten.clang"
  },
  "schemaVersion": "3.1.0",
  "updatedAt": "2022-03-02T07:45:55.420Z",
  "devdoc": {
    "methods": {}
  },
  "userdoc": {
    "methods": {}
  }
}