{
  "contractName": "Auction",
  "abi": [
    {
      "constant": true,
      "inputs": [],
      "name": "STATE",
      "outputs": [
        {
          "name": "",
          "type": "uint8"
        }
      ],
      "payable": false,
      "stateMutability": "view",
      "type": "function"
    },
    {
      "anonymous": false,
      "inputs": [
        {
          "components": [
            {
              "name": "auctionOwner",
              "type": "address"
            },
            {
              "name": "auctionStart",
              "type": "uint256"
            },
            {
              "name": "auctionEnd",
              "type": "uint256"
            },
            {
              "name": "highestBid",
              "type": "uint256"
            },
            {
              "name": "highestBidder",
              "type": "address"
            },
            {
              "name": "state",
              "type": "uint8"
            },
            {
              "name": "name",
              "type": "string"
            },
            {
              "name": "number",
              "type": "string"
            }
          ],
          "indexed": false,
          "name": "auctionInfo",
          "type": "tuple"
        }
      ],
      "name": "SetAuctionEvent",
      "type": "event"
    },
    {
      "anonymous": false,
      "inputs": [
        {
          "indexed": true,
          "name": "highestBidder",
          "type": "address"
        },
        {
          "indexed": false,
          "name": "highestBid",
          "type": "uint256"
        }
      ],
      "name": "BidEvent",
      "type": "event"
    },
    {
      "anonymous": false,
      "inputs": [
        {
          "indexed": false,
          "name": "withdrawer",
          "type": "address"
        },
        {
          "indexed": false,
          "name": "amount",
          "type": "uint256"
        }
      ],
      "name": "WithdrawalEvent",
      "type": "event"
    },
    {
      "anonymous": false,
      "inputs": [
        {
          "indexed": false,
          "name": "message",
          "type": "string"
        },
        {
          "indexed": false,
          "name": "time",
          "type": "uint256"
        }
      ],
      "name": "CanceledEvent",
      "type": "event"
    },
    {
      "constant": false,
      "inputs": [
        {
          "name": "_minuteSet",
          "type": "uint256"
        },
        {
          "name": "_name",
          "type": "string"
        },
        {
          "name": "_number",
          "type": "string"
        }
      ],
      "name": "setAuction",
      "outputs": [
        {
          "name": "",
          "type": "bool"
        }
      ],
      "payable": false,
      "stateMutability": "nonpayable",
      "type": "function"
    },
    {
      "constant": false,
      "inputs": [],
      "name": "bid",
      "outputs": [
        {
          "name": "",
          "type": "bool"
        }
      ],
      "payable": true,
      "stateMutability": "payable",
      "type": "function"
    },
    {
      "constant": false,
      "inputs": [
        {
          "name": "_number",
          "type": "string"
        }
      ],
      "name": "bid",
      "outputs": [],
      "payable": true,
      "stateMutability": "payable",
      "type": "function"
    },
    {
      "constant": false,
      "inputs": [],
      "name": "cancelAuction",
      "outputs": [
        {
          "name": "",
          "type": "bool"
        }
      ],
      "payable": false,
      "stateMutability": "nonpayable",
      "type": "function"
    },
    {
      "constant": false,
      "inputs": [
        {
          "name": "_number",
          "type": "string"
        }
      ],
      "name": "cancelAuction",
      "outputs": [
        {
          "name": "",
          "type": "bool"
        }
      ],
      "payable": false,
      "stateMutability": "nonpayable",
      "type": "function"
    },
    {
      "constant": false,
      "inputs": [
        {
          "name": "_number",
          "type": "string"
        }
      ],
      "name": "withdraw",
      "outputs": [],
      "payable": false,
      "stateMutability": "nonpayable",
      "type": "function"
    },
    {
      "constant": false,
      "inputs": [],
      "name": "withdraw",
      "outputs": [
        {
          "name": "",
          "type": "bool"
        }
      ],
      "payable": false,
      "stateMutability": "nonpayable",
      "type": "function"
    },
    {
      "constant": true,
      "inputs": [],
      "name": "getAllAuctioning",
      "outputs": [
        {
          "name": "",
          "type": "string[]"
        }
      ],
      "payable": false,
      "stateMutability": "view",
      "type": "function"
    },
    {
      "constant": true,
      "inputs": [
        {
          "name": "_number",
          "type": "string"
        }
      ],
      "name": "getNumberOfAuctioning",
      "outputs": [
        {
          "components": [
            {
              "name": "auctionStart",
              "type": "uint256"
            },
            {
              "name": "auctionEnd",
              "type": "uint256"
            },
            {
              "name": "highestBid",
              "type": "uint256"
            },
            {
              "name": "state",
              "type": "uint8"
            },
            {
              "name": "name",
              "type": "string"
            }
          ],
          "name": "",
          "type": "tuple"
        }
      ],
      "payable": false,
      "stateMutability": "view",
      "type": "function"
    },
    {
      "constant": true,
      "inputs": [
        {
          "name": "_address",
          "type": "address"
        }
      ],
      "name": "getAllAuctioningOfOwn",
      "outputs": [
        {
          "name": "",
          "type": "string[]"
        }
      ],
      "payable": false,
      "stateMutability": "view",
      "type": "function"
    },
    {
      "constant": true,
      "inputs": [
        {
          "name": "_address",
          "type": "address"
        }
      ],
      "name": "getAllParticipatingAuction",
      "outputs": [
        {
          "name": "",
          "type": "string[]"
        }
      ],
      "payable": false,
      "stateMutability": "view",
      "type": "function"
    }
  ],
  "bytecode": "0x608060405234801561001057600080fd5b50613d2c806100206000396000f3fe6080604052600436106100b4576000357c01000000000000000000000000000000000000000000000000000000009004806303b4ec60146100b95780631998aeef146100f65780632049472a1461011457806331fb67c2146101515780633ccfd60b1461017a5780634e334382146101a557806359e844cb146101d05780637aef951c1461020d5780638fa8b79014610229578063b60e7a3b14610254578063c486456c14610291578063e27e6db4146102bc575b600080fd5b3480156100c557600080fd5b506100e060048036036100db91908101906133d8565b6102f9565b6040516100ed9190613b17565b60405180910390f35b6100fe610626565b60405161010b9190613971565b60405180910390f35b34801561012057600080fd5b5061013b6004803603610136919081019061336a565b61062b565b604051610148919061394f565b60405180910390f35b34801561015d57600080fd5b50610178600480360361017391908101906133d8565b610753565b005b34801561018657600080fd5b5061018f610fef565b60405161019c9190613971565b60405180910390f35b3480156101b157600080fd5b506101ba610ff4565b6040516101c7919061394f565b60405180910390f35b3480156101dc57600080fd5b506101f760048036036101f29190810190613419565b6110dd565b6040516102049190613971565b60405180910390f35b610227600480360361022291908101906133d8565b61173b565b005b34801561023557600080fd5b5061023e6121b7565b60405161024b9190613971565b60405180910390f35b34801561026057600080fd5b5061027b60048036036102769190810190613393565b6121bc565b6040516102889190613971565b60405180910390f35b34801561029d57600080fd5b506102a6612458565b6040516102b3919061398c565b60405180910390f35b3480156102c857600080fd5b506102e360048036036102de919081019061336a565b61246b565b6040516102f0919061394f565b60405180910390f35b610301612f9c565b610309612f9c565b6000836040518082805190602001908083835b602083101515610341578051825260208201915060208101905060208303925061031c565b6001836020036101000a0380198251168184511680821785525050505050509050019150509081526020016040518091039020600101548160000181815250506000836040518082805190602001908083835b6020831015156103b95780518252602082019150602081019050602083039250610394565b6001836020036101000a0380198251168184511680821785525050505050509050019150509081526020016040518091039020600201548160200181815250506000836040518082805190602001908083835b602083101515610431578051825260208201915060208101905060208303925061040c565b6001836020036101000a0380198251168184511680821785525050505050509050019150509081526020016040518091039020600301548160400181815250506000836040518082805190602001908083835b6020831015156104a95780518252602082019150602081019050602083039250610484565b6001836020036101000a038019825116818451168082178552505050505050905001915050908152602001604051809103902060040160149054906101000a900460ff16816060019060018111156104fd57fe5b9081600181111561050a57fe5b815250506000836040518082805190602001908083835b6020831015156105465780518252602082019150602081019050602083039250610521565b6001836020036101000a03801982511681845116808217855250505050505090500191505090815260200160405180910390206005018054600181600116156101000203166002900480601f0160208091040260200160405190810160405280929190818152602001828054600181600116156101000203166002900480156106105780601f106105e557610100808354040283529160200191610610565b820191906000526020600020905b8154815290600101906020018083116105f357829003601f168201915b5050505050816080018190525080915050919050565b600090565b6060600560008373ffffffffffffffffffffffffffffffffffffffff1673ffffffffffffffffffffffffffffffffffffffff168152602001908152602001600020805480602002602001604051908101604052809291908181526020016000905b82821015610748578382906000526020600020018054600181600116156101000203166002900480601f0160208091040260200160405190810160405280929190818152602001828054600181600116156101000203166002900480156107345780601f1061070957610100808354040283529160200191610734565b820191906000526020600020905b81548152906001019060200180831161071757829003601f168201915b50505050508152602001906001019061068c565b505050509050919050565b600081511415151561079a576040517f08c379a000000000000000000000000000000000000000000000000000000000815260040161079190613ad5565b60405180910390fd5b600080826040518082805190602001908083835b6020831015156107d357805182526020820191506020810190506020830392506107ae565b6001836020036101000a038019825116818451168082178552505050505050905001915050908152602001604051809103902060040160009054906101000a900473ffffffffffffffffffffffffffffffffffffffff1673ffffffffffffffffffffffffffffffffffffffff163373ffffffffffffffffffffffffffffffffffffffff161480156108f657506000600181111561086c57fe5b6000836040518082805190602001908083835b6020831015156108a4578051825260208201915060208101905060208303925061087f565b6001836020036101000a038019825116818451168082178552505050505050905001915050908152602001604051809103902060040160149054906101000a900460ff1660018111156108f357fe5b14155b15610cc257426000836040518082805190602001908083835b602083101515610934578051825260208201915060208101905060208303925061090f565b6001836020036101000a038019825116818451168082178552505050505050905001915050908152602001604051809103902060020154111515156109ae576040517f08c379a00000000000000000000000000000000000000000000000000000000081526004016109a590613a95565b60405180910390fd5b6002826040518082805190602001908083835b6020831015156109e657805182526020820191506020810190506020830392506109c1565b6001836020036101000a038019825116818451168082178552505050505050905001915050908152602001604051809103902060003373ffffffffffffffffffffffffffffffffffffffff1673ffffffffffffffffffffffffffffffffffffffff16815260200190815260200160002054905060006002836040518082805190602001908083835b602083101515610a935780518252602082019150602081019050602083039250610a6e565b6001836020036101000a038019825116818451168082178552505050505050905001915050908152602001604051809103902060003373ffffffffffffffffffffffffffffffffffffffff1673ffffffffffffffffffffffffffffffffffffffff16815260200190815260200160002081905550600080836040518082805190602001908083835b602083101515610b405780518252602082019150602081019050602083039250610b1b565b6001836020036101000a038019825116818451168082178552505050505050905001915050908152602001604051809103902060000160009054906101000a900473ffffffffffffffffffffffffffffffffffffffff1690508073ffffffffffffffffffffffffffffffffffffffff166108fc839081150290604051600060405180830381858888f19350505050158015610bdf573d6000803e3d6000fd5b50610be983612593565b50610c826000846040518082805190602001908083835b602083101515610c255780518252602082019150602081019050602083039250610c00565b6001836020036101000a038019825116818451168082178552505050505050905001915050908152602001604051809103902060000160009054906101000a900473ffffffffffffffffffffffffffffffffffffffff1684612929565b507f2f174ca282119315c59efaf21147aef438581dabdeb498198ae28964373dd8bc8183604051610cb4929190613926565b60405180910390a150610feb565b60006001811115610ccf57fe5b6000836040518082805190602001908083835b602083101515610d075780518252602082019150602081019050602083039250610ce2565b6001836020036101000a038019825116818451168082178552505050505050905001915050908152602001604051809103902060040160149054906101000a900460ff166001811115610d5657fe5b141515610e1157426000836040518082805190602001908083835b602083101515610d965780518252602082019150602081019050602083039250610d71565b6001836020036101000a03801982511681845116808217855250505050505090500191505090815260200160405180910390206002015411151515610e10576040517f08c379a0000000000000000000000000000000000000000000000000000000008152600401610e0790613a95565b60405180910390fd5b5b6002826040518082805190602001908083835b602083101515610e495780518252602082019150602081019050602083039250610e24565b6001836020036101000a038019825116818451168082178552505050505050905001915050908152602001604051809103902060003373ffffffffffffffffffffffffffffffffffffffff1673ffffffffffffffffffffffffffffffffffffffff16815260200190815260200160002054905060006002836040518082805190602001908083835b602083101515610ef65780518252602082019150602081019050602083039250610ed1565b6001836020036101000a038019825116818451168082178552505050505050905001915050908152602001604051809103902060003373ffffffffffffffffffffffffffffffffffffffff1673ffffffffffffffffffffffffffffffffffffffff168152602001908152602001600020819055503373ffffffffffffffffffffffffffffffffffffffff166108fc829081150290604051600060405180830381858888f19350505050158015610fb0573d6000803e3d6000fd5b507f2f174ca282119315c59efaf21147aef438581dabdeb498198ae28964373dd8bc3382604051610fe2929190613926565b60405180910390a15b5050565b600090565b60606003805480602002602001604051908101604052809291908181526020016000905b828210156110d4578382906000526020600020018054600181600116156101000203166002900480601f0160208091040260200160405190810160405280929190818152602001828054600181600116156101000203166002900480156110c05780601f10611095576101008083540402835291602001916110c0565b820191906000526020600020905b8154815290600101906020018083116110a357829003601f168201915b505050505081526020019060010190611018565b50505050905090565b60008084111515611123576040517f08c379a000000000000000000000000000000000000000000000000000000000815260040161111a90613ab5565b60405180910390fd5b600083511415151561116a576040517f08c379a000000000000000000000000000000000000000000000000000000000815260040161116190613a35565b60405180910390fd5b60008251141515156111b1576040517f08c379a00000000000000000000000000000000000000000000000000000000081526004016111a890613ad5565b60405180910390fd5b81805190602001206000836040518082805190602001908083835b6020831015156111f157805182526020820191506020810190506020830392506111cc565b6001836020036101000a038019825116818451168082178552505050505050905001915050908152602001604051809103902060060160405180828054600181600116156101000203166002900480156112825780601f10611260576101008083540402835291820191611282565b820191906000526020600020905b81548152906001019060200180831161126e575b50509150506040518091039020141515156112d2576040517f08c379a00000000000000000000000000000000000000000000000000000000081526004016112c9906139c7565b60405180910390fd5b60004290506112df612fd7565b610100604051908101604052803373ffffffffffffffffffffffffffffffffffffffff168152602001838152602001603c88028401815260200160008152602001600073ffffffffffffffffffffffffffffffffffffffff16815260200160018081111561134957fe5b8152602001868152602001858152509050806000856040518082805190602001908083835b602083101515611393578051825260208201915060208101905060208303925061136e565b6001836020036101000a038019825116818451168082178552505050505050905001915050908152602001604051809103902060008201518160000160006101000a81548173ffffffffffffffffffffffffffffffffffffffff021916908373ffffffffffffffffffffffffffffffffffffffff16021790555060208201518160010155604082015181600201556060820151816003015560808201518160040160006101000a81548173ffffffffffffffffffffffffffffffffffffffff021916908373ffffffffffffffffffffffffffffffffffffffff16021790555060a08201518160040160146101000a81548160ff0219169083600181111561149657fe5b021790555060c08201518160050190805190602001906114b7929190613054565b5060e08201518160060190805190602001906114d4929190613054565b5090505060038490806001815401808255809150509060018203906000526020600020016000909192909190915090805190602001906115159291906130d4565b50506003805490506004856040518082805190602001908083835b6020831015156115555780518252602082019150602081019050602083039250611530565b6001836020036101000a038019825116818451168082178552505050505050905001915050908152602001604051809103902081905550600560003373ffffffffffffffffffffffffffffffffffffffff1673ffffffffffffffffffffffffffffffffffffffff1681526020019081526020016000208490806001815401808255809150509060018203906000526020600020016000909192909190915090805190602001906116069291906130d4565b5050600560003373ffffffffffffffffffffffffffffffffffffffff1673ffffffffffffffffffffffffffffffffffffffff16815260200190815260200160002080549050600660003373ffffffffffffffffffffffffffffffffffffffff1673ffffffffffffffffffffffffffffffffffffffff168152602001908152602001600020856040518082805190602001908083835b6020831015156116c0578051825260208201915060208101905060208303925061169b565b6001836020036101000a0380198251168184511680821785525050505050509050019150509081526020016040518091039020819055507ffa698348763f129470bbb580c0fffc8b201d7aeb91b2a5c474f01c5cca9f68f7816040516117269190613af5565b60405180910390a16001925050509392505050565b6000816040518082805190602001908083835b602083101515611773578051825260208201915060208101905060208303925061174e565b6001836020036101000a03801982511681845116808217855250505050505090500191505090815260200160405180910390206002015442111515156117ee576040517f08c379a00000000000000000000000000000000000000000000000000000000081526004016117e590613a75565b60405180910390fd5b6000816040518082805190602001908083835b6020831015156118265780518252602082019150602081019050602083039250611801565b6001836020036101000a038019825116818451168082178552505050505050905001915050908152602001604051809103902060030154346002836040518082805190602001908083835b6020831015156118965780518252602082019150602081019050602083039250611871565b6001836020036101000a038019825116818451168082178552505050505050905001915050908152602001604051809103902060003373ffffffffffffffffffffffffffffffffffffffff1673ffffffffffffffffffffffffffffffffffffffff168152602001908152602001600020540111151561194a576040517f08c379a0000000000000000000000000000000000000000000000000000000008152600401611941906139e7565b60405180910390fd5b6000600181111561195757fe5b6000826040518082805190602001908083835b60208310151561198f578051825260208201915060208101905060208303925061196a565b6001836020036101000a038019825116818451168082178552505050505050905001915050908152602001604051809103902060040160149054906101000a900460ff1660018111156119de57fe5b14151515611a21576040517f08c379a0000000000000000000000000000000000000000000000000000000008152600401611a1890613a55565b60405180910390fd5b6000815114151515611a68576040517f08c379a0000000000000000000000000000000000000000000000000000000008152600401611a5f90613ad5565b60405180910390fd5b336000826040518082805190602001908083835b602083101515611aa15780518252602082019150602081019050602083039250611a7c565b6001836020036101000a038019825116818451168082178552505050505050905001915050908152602001604051809103902060040160006101000a81548173ffffffffffffffffffffffffffffffffffffffff021916908373ffffffffffffffffffffffffffffffffffffffff160217905550346000826040518082805190602001908083835b602083101515611b4e5780518252602082019150602081019050602083039250611b29565b6001836020036101000a038019825116818451168082178552505050505050905001915050908152602001604051809103902060030181905550336001826040518082805190602001908083835b602083101515611bc15780518252602082019150602081019050602083039250611b9c565b6001836020036101000a038019825116818451168082178552505050505050905001915050908152602001604051809103902060006101000a81548173ffffffffffffffffffffffffffffffffffffffff021916908373ffffffffffffffffffffffffffffffffffffffff160217905550346002826040518082805190602001908083835b602083101515611c6b5780518252602082019150602081019050602083039250611c46565b6001836020036101000a038019825116818451168082178552505050505050905001915050908152602001604051809103902060003373ffffffffffffffffffffffffffffffffffffffff1673ffffffffffffffffffffffffffffffffffffffff16815260200190815260200160002054016002826040518082805190602001908083835b602083101515611d155780518252602082019150602081019050602083039250611cf0565b6001836020036101000a038019825116818451168082178552505050505050905001915050908152602001604051809103902060003373ffffffffffffffffffffffffffffffffffffffff1673ffffffffffffffffffffffffffffffffffffffff168152602001908152602001600020819055508080519060200120600760003373ffffffffffffffffffffffffffffffffffffffff1673ffffffffffffffffffffffffffffffffffffffff168152602001908152602001600020600860003373ffffffffffffffffffffffffffffffffffffffff1673ffffffffffffffffffffffffffffffffffffffff168152602001908152602001600020836040518082805190602001908083835b602083101515611e455780518252602082019150602081019050602083039250611e20565b6001836020036101000a038019825116818451168082178552505050505050905001915050908152602001604051809103902054815481101515611e8557fe5b906000526020600020016040518082805460018160011615610100020316600290048015611eea5780601f10611ec8576101008083540402835291820191611eea565b820191906000526020600020905b815481529060010190602001808311611ed6575b5050915050604051809103902014151561206a57600760003373ffffffffffffffffffffffffffffffffffffffff1673ffffffffffffffffffffffffffffffffffffffff168152602001908152602001600020819080600181540180825580915050906001820390600052602060002001600090919290919091509080519060200190611f789291906130d4565b5050600760003373ffffffffffffffffffffffffffffffffffffffff1673ffffffffffffffffffffffffffffffffffffffff16815260200190815260200160002080549050600860003373ffffffffffffffffffffffffffffffffffffffff1673ffffffffffffffffffffffffffffffffffffffff168152602001908152602001600020826040518082805190602001908083835b602083101515612032578051825260208201915060208101905060208303925061200d565b6001836020036101000a0380198251168184511680821785525050505050509050019150509081526020016040518091039020819055505b6000816040518082805190602001908083835b6020831015156120a2578051825260208201915060208101905060208303925061207d565b6001836020036101000a038019825116818451168082178552505050505050905001915050908152602001604051809103902060040160009054906101000a900473ffffffffffffffffffffffffffffffffffffffff1673ffffffffffffffffffffffffffffffffffffffff167f0d993d4f8a84158f5329713d6d13ef54e77b325040c887c8b3e565cfd0cd3e216000836040518082805190602001908083835b6020831015156121685780518252602082019150602081019050602083039250612143565b6001836020036101000a0380198251168184511680821785525050505050509050019150509081526020016040518091039020600301546040516121ac9190613b39565b60405180910390a250565b600090565b6000808383604051808383808284378083019250505092505050908152602001604051809103902060020154421115151561222c576040517f08c379a000000000000000000000000000000000000000000000000000000000815260040161222390613a75565b60405180910390fd5b60008383604051808383808284378083019250505092505050908152602001604051809103902060000160009054906101000a900473ffffffffffffffffffffffffffffffffffffffff1673ffffffffffffffffffffffffffffffffffffffff163373ffffffffffffffffffffffffffffffffffffffff161415156122e6576040517f08c379a00000000000000000000000000000000000000000000000000000000081526004016122dd906139a7565b60405180910390fd5b6000838390501415151561232f576040517f08c379a000000000000000000000000000000000000000000000000000000000815260040161232690613ad5565b60405180910390fd5b6000808484604051808383808284378083019250505092505050908152602001604051809103902060040160146101000a81548160ff0219169083600181111561237557fe5b02179055506123c783838080601f016020809104026020016040519081016040528093929190818152602001838380828437600081840152601f19601f82011690508083019250505050505050612593565b506124163384848080601f016020809104026020016040519081016040528093929190818152602001838380828437600081840152601f19601f82011690508083019250505050505050612929565b507f06b08932edfa95ecf10e18f8e389c58332551bbfe5faf843ed9afb329fd14118426040516124469190613a07565b60405180910390a16001905092915050565b600960009054906101000a900460ff1681565b6060600760008373ffffffffffffffffffffffffffffffffffffffff1673ffffffffffffffffffffffffffffffffffffffff168152602001908152602001600020805480602002602001604051908101604052809291908181526020016000905b82821015612588578382906000526020600020018054600181600116156101000203166002900480601f0160208091040260200160405190810160405280929190818152602001828054600181600116156101000203166002900480156125745780601f1061254957610100808354040283529160200191612574565b820191906000526020600020905b81548152906001019060200180831161255757829003601f168201915b5050505050815260200190600101906124cc565b505050509050919050565b60008060016003805490500390506004836040518082805190602001908083835b6020831015156125d957805182526020820191506020810190506020830392506125b4565b6001836020036101000a03801982511681845116808217855250505050505090500191505090815260200160405180910390205460038054905014151561287357600060016004856040518082805190602001908083835b6020831015156126565780518252602082019150602081019050602083039250612631565b6001836020036101000a03801982511681845116808217855250505050505090500191505090815260200160405180910390205403905060038281548110151561269c57fe5b906000526020600020016003828154811015156126b557fe5b9060005260206000200190805460018160011615610100020316600290046126de929190613154565b5060606003828154811015156126f057fe5b906000526020600020018054600181600116156101000203166002900480601f01602080910402602001604051908101604052809291908181526020018280546001816001161561010002031660029004801561278e5780601f106127635761010080835404028352916020019161278e565b820191906000526020600020905b81548152906001019060200180831161277157829003601f168201915b505050505090506004856040518082805190602001908083835b6020831015156127cd57805182526020820191506020810190506020830392506127a8565b6001836020036101000a0380198251168184511680821785525050505050509050019150509081526020016040518091039020546004826040518082805190602001908083835b6020831015156128395780518252602082019150602081019050602083039250612814565b6001836020036101000a03801982511681845116808217855250505050505090500191505090815260200160405180910390208190555050505b60038181548110151561288257fe5b90600052602060002001600061289891906131db565b60038054809190600190036128ad9190613223565b5060006004846040518082805190602001908083835b6020831015156128e857805182526020820191506020810190506020830392506128c3565b6001836020036101000a0380198251168184511680821785525050505050509050019150509081526020016040518091039020819055506001915050919050565b6000806001600560008673ffffffffffffffffffffffffffffffffffffffff1673ffffffffffffffffffffffffffffffffffffffff16815260200190815260200160002080549050039050600660008573ffffffffffffffffffffffffffffffffffffffff1673ffffffffffffffffffffffffffffffffffffffff168152602001908152602001600020836040518082805190602001908083835b6020831015156129e957805182526020820191506020810190506020830392506129c4565b6001836020036101000a038019825116818451168082178552505050505050905001915050908152602001604051809103902054600560008673ffffffffffffffffffffffffffffffffffffffff1673ffffffffffffffffffffffffffffffffffffffff16815260200190815260200160002080549050141515612e2e5760006001600660008773ffffffffffffffffffffffffffffffffffffffff1673ffffffffffffffffffffffffffffffffffffffff168152602001908152602001600020856040518082805190602001908083835b602083101515612ae05780518252602082019150602081019050602083039250612abb565b6001836020036101000a038019825116818451168082178552505050505050905001915050908152602001604051809103902054039050600560008673ffffffffffffffffffffffffffffffffffffffff1673ffffffffffffffffffffffffffffffffffffffff16815260200190815260200160002082815481101515612b6357fe5b90600052602060002001600560008773ffffffffffffffffffffffffffffffffffffffff1673ffffffffffffffffffffffffffffffffffffffff16815260200190815260200160002082815481101515612bb957fe5b906000526020600020019080546001816001161561010002031660029004612be2929190613154565b506060600560008773ffffffffffffffffffffffffffffffffffffffff1673ffffffffffffffffffffffffffffffffffffffff16815260200190815260200160002082815481101515612c3157fe5b906000526020600020018054600181600116156101000203166002900480601f016020809104026020016040519081016040528092919081815260200182805460018160011615610100020316600290048015612ccf5780601f10612ca457610100808354040283529160200191612ccf565b820191906000526020600020905b815481529060010190602001808311612cb257829003601f168201915b50505050509050600660008773ffffffffffffffffffffffffffffffffffffffff1673ffffffffffffffffffffffffffffffffffffffff168152602001908152602001600020856040518082805190602001908083835b602083101515612d4b5780518252602082019150602081019050602083039250612d26565b6001836020036101000a038019825116818451168082178552505050505050905001915050908152602001604051809103902054600660008873ffffffffffffffffffffffffffffffffffffffff1673ffffffffffffffffffffffffffffffffffffffff168152602001908152602001600020826040518082805190602001908083835b602083101515612df45780518252602082019150602081019050602083039250612dcf565b6001836020036101000a03801982511681845116808217855250505050505090500191505090815260200160405180910390208190555050505b600560008573ffffffffffffffffffffffffffffffffffffffff1673ffffffffffffffffffffffffffffffffffffffff16815260200190815260200160002081815481101515612e7a57fe5b906000526020600020016000612e9091906131db565b600560008573ffffffffffffffffffffffffffffffffffffffff1673ffffffffffffffffffffffffffffffffffffffff168152602001908152602001600020805480919060019003612ee29190613223565b506000600660008673ffffffffffffffffffffffffffffffffffffffff1673ffffffffffffffffffffffffffffffffffffffff168152602001908152602001600020846040518082805190602001908083835b602083101515612f5a5780518252602082019150602081019050602083039250612f35565b6001836020036101000a038019825116818451168082178552505050505050905001915050908152602001604051809103902081905550600191505092915050565b60a06040519081016040528060008152602001600081526020016000815260200160006001811115612fca57fe5b8152602001606081525090565b61010060405190810160405280600073ffffffffffffffffffffffffffffffffffffffff168152602001600081526020016000815260200160008152602001600073ffffffffffffffffffffffffffffffffffffffff1681526020016000600181111561304057fe5b815260200160608152602001606081525090565b828054600181600116156101000203166002900490600052602060002090601f016020900481019282601f1061309557805160ff19168380011785556130c3565b828001600101855582156130c3579182015b828111156130c25782518255916020019190600101906130a7565b5b5090506130d0919061324f565b5090565b828054600181600116156101000203166002900490600052602060002090601f016020900481019282601f1061311557805160ff1916838001178555613143565b82800160010185558215613143579182015b82811115613142578251825591602001919060010190613127565b5b509050613150919061324f565b5090565b828054600181600116156101000203166002900490600052602060002090601f016020900481019282601f1061318d57805485556131ca565b828001600101855582156131ca57600052602060002091601f016020900482015b828111156131c95782548255916001019190600101906131ae565b5b5090506131d7919061324f565b5090565b50805460018160011615610100020316600290046000825580601f106132015750613220565b601f01602090049060005260206000209081019061321f919061324f565b5b50565b81548183558181111561324a578183600052602060002091820191016132499190613274565b5b505050565b61327191905b8082111561326d576000816000905550600101613255565b5090565b90565b61329d91905b80821115613299576000818161329091906131db565b5060010161327a565b5090565b90565b60006132ac8235613c3b565b905092915050565b60008083601f84011215156132c857600080fd5b8235905067ffffffffffffffff8111156132e157600080fd5b6020830191508360018202830111156132f957600080fd5b9250929050565b600082601f830112151561331357600080fd5b813561332661332182613b81565b613b54565b9150808252602083016020830185838301111561334257600080fd5b61334d838284613c9f565b50505092915050565b60006133628235613c4d565b905092915050565b60006020828403121561337c57600080fd5b600061338a848285016132a0565b91505092915050565b600080602083850312156133a657600080fd5b600083013567ffffffffffffffff8111156133c057600080fd5b6133cc858286016132b4565b92509250509250929050565b6000602082840312156133ea57600080fd5b600082013567ffffffffffffffff81111561340457600080fd5b61341084828501613300565b91505092915050565b60008060006060848603121561342e57600080fd5b600061343c86828701613356565b935050602084013567ffffffffffffffff81111561345957600080fd5b61346586828701613300565b925050604084013567ffffffffffffffff81111561348257600080fd5b61348e86828701613300565b9150509250925092565b6134a181613c57565b82525050565b6134b081613bdd565b82525050565b60006134c182613bba565b808452602084019350836020820285016134da85613bad565b60005b848110156135135783830388526134f5838351613542565b925061350082613bd0565b91506020880197506001810190506134dd565b508196508694505050505092915050565b61352d81613bef565b82525050565b61353c81613c69565b82525050565b600061354d82613bc5565b808452613561816020860160208601613cae565b61356a81613ce1565b602085010191505092915050565b6000602b82527f6d73672e73656e64657220616e642061756374696f6e206f776e65722061726560208301527f20646966666572656e742e0000000000000000000000000000000000000000006040830152606082019050919050565b6000601f82527f5468652073616d65206e756d62657220616c7265616479206578697374732e006020830152604082019050919050565b6000602082527f596f752063616e2774206269642c204d616b65206120686967686572204269646020830152604082019050919050565b6000601182527f41756374696f6e2043616e63656c6c65640000000000000000000000000000006020830152604082019050919050565b6000601e82527f506c6561736520656e746572207468652061756374696f6e206e616d652e00006020830152604082019050919050565b6000602782527f546869732061756374696f6e2068617320616c7265616479206265656e20636160208301527f6e63656c65642e000000000000000000000000000000000000000000000000006040830152606082019050919050565b6000601c82527f5468652061756374696f6e20697320616c7265616479206f7665722e000000006020830152604082019050919050565b6000601e82527f5468652061756374696f6e206973207374696c6c20756e6465727761792e00006020830152604082019050919050565b6000601c82527f506c6561736520736574207468652061756374696f6e2074696d652e000000006020830152604082019050919050565b6000602082527f506c6561736520656e746572207468652061756374696f6e206e756d6265722e6020830152604082019050919050565b60006101008301600083015161380360008601826134a7565b5060208301516138166020860182613917565b5060408301516138296040860182613917565b50606083015161383c6060860182613917565b50608083015161384f60808601826134a7565b5060a083015161386260a0860182613533565b5060c083015184820360c086015261387a8282613542565b91505060e083015184820360e08601526138948282613542565b9150508091505092915050565b600060a0830160008301516138b96000860182613917565b5060208301516138cc6020860182613917565b5060408301516138df6040860182613917565b5060608301516138f26060860182613533565b506080830151848203608086015261390a8282613542565b9150508091505092915050565b61392081613c31565b82525050565b600060408201905061393b6000830185613498565b6139486020830184613917565b9392505050565b6000602082019050818103600083015261396981846134b6565b905092915050565b60006020820190506139866000830184613524565b92915050565b60006020820190506139a16000830184613533565b92915050565b600060208201905081810360008301526139c081613578565b9050919050565b600060208201905081810360008301526139e0816135d5565b9050919050565b60006020820190508181036000830152613a008161360c565b9050919050565b60006040820190508181036000830152613a2081613643565b9050613a2f6020830184613917565b92915050565b60006020820190508181036000830152613a4e8161367a565b9050919050565b60006020820190508181036000830152613a6e816136b1565b9050919050565b60006020820190508181036000830152613a8e8161370e565b9050919050565b60006020820190508181036000830152613aae81613745565b9050919050565b60006020820190508181036000830152613ace8161377c565b9050919050565b60006020820190508181036000830152613aee816137b3565b9050919050565b60006020820190508181036000830152613b0f81846137ea565b905092915050565b60006020820190508181036000830152613b3181846138a1565b905092915050565b6000602082019050613b4e6000830184613917565b92915050565b6000604051905081810181811067ffffffffffffffff82111715613b7757600080fd5b8060405250919050565b600067ffffffffffffffff821115613b9857600080fd5b601f19601f8301169050602081019050919050565b6000602082019050919050565b600081519050919050565b600081519050919050565b6000602082019050919050565b6000613be882613c11565b9050919050565b60008115159050919050565b6000600282101515613c0957fe5b819050919050565b600073ffffffffffffffffffffffffffffffffffffffff82169050919050565b6000819050919050565b6000613c4682613c11565b9050919050565b6000819050919050565b6000613c6282613c7b565b9050919050565b6000613c7482613bfb565b9050919050565b6000613c8682613c8d565b9050919050565b6000613c9882613c11565b9050919050565b82818337600083830152505050565b60005b83811015613ccc578082015181840152602081019050613cb1565b83811115613cdb576000848401525b50505050565b6000601f19601f830116905091905056fea265627a7a7230582065b2d5d5013607c0ba30db5bc32e43387fbe468da32d11604031ecd5a4d7a5446c6578706572696d656e74616cf50037",
  "source": "// SPDX-License-Identifier: MIT\npragma solidity ^0.5.1;\npragma experimental ABIEncoderV2;\n\nimport \"./AuctionInfo.sol\";\n//import \"openzeppelin-solidity/contracts/token/ERC721/ERC721Full.sol\";\n\ncontract Auction is AuctionInfos {\n\n    //    constructor() ERC721Full(\"AuctionToken\", \"ACT\") public {\n    //    }\n\n    // \n    function setAuction(uint256 _minuteSet, string memory _name, string memory _number) public returns (bool){\n        require(_minuteSet > 0, \"Please set the auction time.\");\n        require(bytes(_name).length != 0, \"Please enter the auction name.\");\n        require(bytes(_number).length != 0, \"Please enter the auction number.\");\n        require(keccak256(bytes(AuctionList[_number].number)) != keccak256(bytes(_number)), \"The same number already exists.\");\n\n        uint256 unixTime = now;\n\n        AuctionInfo memory auctionInfo = AuctionInfo(\n            msg.sender,\n            unixTime,\n            unixTime + (_minuteSet * 60),\n            0,\n            address(0),\n            auctionState.STARTED,\n            _name,\n            _number\n        );\n        AuctionList[_number] = auctionInfo;\n\n        //    \n        itemUnderAuction.push(_number);\n        itemUnderAuctionIndex[_number] = itemUnderAuction.length;\n\n        //     \n        itemUnderAuctionOfOwn[msg.sender].push(_number);\n        itemUnderAuctionOfOwnIndex[msg.sender][_number] = itemUnderAuctionOfOwn[msg.sender].length;\n\n        emit SetAuctionEvent(auctionInfo);\n        return true;\n    }\n    // bid() ,      .\n    //   ,     \n    //     \n    //payable      \n    function bid(string memory _number) public payable {\n        require(now <= AuctionList[_number].auctionEnd, \"The auction is already over.\");\n        require(bids[_number][msg.sender] + msg.value > AuctionList[_number].highestBid, \"You can't bid, Make a higher Bid\");\n        require(AuctionList[_number].state != auctionState.CANCELLED, \"This auction has already been canceled.\");\n        require(bytes(_number).length != 0, \"Please enter the auction number.\");\n\n        AuctionList[_number].highestBidder = msg.sender;\n        AuctionList[_number].highestBid = msg.value;\n        bidders[_number] = msg.sender;\n        bids[_number][msg.sender] = bids[_number][msg.sender] + msg.value;\n\n        //   \n        if (keccak256(bytes(participatingAuction[msg.sender][participatingAuctionIndex[msg.sender][_number]])) != keccak256(bytes(_number))) {\n            participatingAuction[msg.sender].push(_number);\n            participatingAuctionIndex[msg.sender][_number] = participatingAuction[msg.sender].length;\n        }\n\n        emit BidEvent(AuctionList[_number].highestBidder, AuctionList[_number].highestBid);\n\n    }\n    // cancle      \n    //  ,      (2 )\n    // 1.   ,   2.  \n    function cancelAuction(string calldata _number) external returns (bool){\n        require(now <= AuctionList[_number].auctionEnd, \"The auction is already over.\");\n        require(msg.sender == AuctionList[_number].auctionOwner, \"msg.sender and auction owner are different.\");\n        require(bytes(_number).length != 0, \"Please enter the auction number.\");\n\n        AuctionList[_number].state = auctionState.CANCELLED;\n\n        initAuction(_number);\n        initAuctionOfOwn(msg.sender, _number);\n\n        emit CanceledEvent(\"Auction Cancelled\", now);\n\n        return true;\n    }\n\n    //withdraw()        \n    function withdraw(string memory _number) public {\n        require(bytes(_number).length != 0, \"Please enter the auction number.\");\n\n        uint256 amount;\n        if (msg.sender == AuctionList[_number].highestBidder && AuctionList[_number].state != auctionState.CANCELLED) {\n            require(AuctionList[_number].auctionEnd <= now, \"The auction is still underway.\");\n\n            amount = bids[_number][msg.sender];\n            bids[_number][msg.sender] = 0;\n\n            address payable payableOwner = address(uint160(AuctionList[_number].auctionOwner));\n            payableOwner.transfer(amount);\n\n            initAuction(_number);\n            initAuctionOfOwn(AuctionList[_number].auctionOwner, _number);\n            //_mint(msg.sender, _number);\n            //    \n            emit WithdrawalEvent(payableOwner, amount);\n        }\n        else {\n            if (AuctionList[_number].state != auctionState.CANCELLED) {\n                require(AuctionList[_number].auctionEnd <= now, \"The auction is still underway.\");\n            }\n            amount = bids[_number][msg.sender];\n            bids[_number][msg.sender] = 0;\n            msg.sender.transfer(amount);\n            //    \n            emit WithdrawalEvent(msg.sender, amount);\n        }\n\n    }\n\n    function initAuction(string memory _number) private returns (bool){\n\n        uint256 lastIndex = itemUnderAuction.length - 1;\n\n        if (itemUnderAuction.length != itemUnderAuctionIndex[_number]) {\n            uint256 index = itemUnderAuctionIndex[_number] - 1;\n\n            itemUnderAuction[index] = itemUnderAuction[lastIndex];\n\n            string memory element = itemUnderAuction[index];\n            itemUnderAuctionIndex[element] = itemUnderAuctionIndex[_number];\n        }\n\n        delete itemUnderAuction[lastIndex];\n        itemUnderAuction.length--;\n        itemUnderAuctionIndex[_number] = 0;\n\n        return true;\n    }\n\n    function initAuctionOfOwn(address _address, string memory _number) private returns (bool){\n\n        uint256 lastIndex = itemUnderAuctionOfOwn[_address].length - 1;\n\n        if (itemUnderAuctionOfOwn[_address].length != itemUnderAuctionOfOwnIndex[_address][_number]) {\n            uint256 index = itemUnderAuctionOfOwnIndex[_address][_number] - 1;\n\n            itemUnderAuctionOfOwn[_address][index] = itemUnderAuctionOfOwn[_address][lastIndex];\n\n            string memory element = itemUnderAuctionOfOwn[_address][index];\n            itemUnderAuctionOfOwnIndex[_address][element] = itemUnderAuctionOfOwnIndex[_address][_number];\n        }\n\n        delete itemUnderAuctionOfOwn[_address][lastIndex];\n        itemUnderAuctionOfOwn[_address].length--;\n        itemUnderAuctionOfOwnIndex[_address][_number] = 0;\n\n        return true;\n    }\n    //   \n    function getAllAuctioning() public view returns (\n        string[] memory\n    ) {\n        return itemUnderAuction;\n    }\n\n    //    \n    function getNumberOfAuctioning(string memory _number) public view returns (\n        Auctioning memory\n    ) {\n        Auctioning memory result;\n        result.auctionStart = AuctionList[_number].auctionStart;\n        result.auctionEnd = AuctionList[_number].auctionEnd;\n        result.highestBid = AuctionList[_number].highestBid;\n        result.state = AuctionList[_number].state;\n        result.name = AuctionList[_number].name;\n        return result;\n    }\n    //   \n    function getAllAuctioningOfOwn(address _address) public view returns (\n        string[] memory\n    ) {\n        return itemUnderAuctionOfOwn[_address];\n    }\n\n    //   \n    function getAllParticipatingAuction(address _address) public view returns (\n        string[] memory\n    ) {\n        return participatingAuction[_address];\n    }\n}\n",
  "sourcePath": "C:\\Users\\sping\\OneDrive\\ \\Auction_Solidity\\truffle\\contracts\\Auction\\Auction.sol",
  "compiler": {
    "name": "solc",
    "version": "0.5.1+commit.c8a2cb62.Emscripten.clang"
  },
  "schemaVersion": "3.1.0",
  "updatedAt": "2022-03-04T17:41:47.662Z",
  "networkType": "ethereum",
  "devdoc": {
    "methods": {}
  },
  "userdoc": {
    "methods": {}
  }
}