{
  "contractName": "AuctionInfos",
  "abi": [
    {
      "constant": true,
      "inputs": [],
      "name": "STATE",
      "outputs": [
        {
          "name": "",
          "type": "uint8"
        }
      ],
      "payable": false,
      "stateMutability": "view",
      "type": "function"
    },
    {
      "anonymous": false,
      "inputs": [
        {
          "components": [
            {
              "name": "auctionOwner",
              "type": "address"
            },
            {
              "name": "auctionStart",
              "type": "uint256"
            },
            {
              "name": "auctionEnd",
              "type": "uint256"
            },
            {
              "name": "highestBid",
              "type": "uint256"
            },
            {
              "name": "highestBidder",
              "type": "address"
            },
            {
              "name": "state",
              "type": "uint8"
            },
            {
              "name": "name",
              "type": "string"
            },
            {
              "name": "number",
              "type": "string"
            }
          ],
          "indexed": false,
          "name": "auctionInfo",
          "type": "tuple"
        }
      ],
      "name": "SetAuctionEvent",
      "type": "event"
    },
    {
      "anonymous": false,
      "inputs": [
        {
          "indexed": true,
          "name": "highestBidder",
          "type": "address"
        },
        {
          "indexed": false,
          "name": "highestBid",
          "type": "uint256"
        }
      ],
      "name": "BidEvent",
      "type": "event"
    },
    {
      "anonymous": false,
      "inputs": [
        {
          "indexed": false,
          "name": "withdrawer",
          "type": "address"
        },
        {
          "indexed": false,
          "name": "amount",
          "type": "uint256"
        }
      ],
      "name": "WithdrawalEvent",
      "type": "event"
    },
    {
      "anonymous": false,
      "inputs": [
        {
          "indexed": false,
          "name": "message",
          "type": "string"
        },
        {
          "indexed": false,
          "name": "time",
          "type": "uint256"
        }
      ],
      "name": "CanceledEvent",
      "type": "event"
    },
    {
      "constant": false,
      "inputs": [],
      "name": "bid",
      "outputs": [
        {
          "name": "",
          "type": "bool"
        }
      ],
      "payable": true,
      "stateMutability": "payable",
      "type": "function"
    },
    {
      "constant": false,
      "inputs": [],
      "name": "withdraw",
      "outputs": [
        {
          "name": "",
          "type": "bool"
        }
      ],
      "payable": false,
      "stateMutability": "nonpayable",
      "type": "function"
    },
    {
      "constant": false,
      "inputs": [],
      "name": "cancelAuction",
      "outputs": [
        {
          "name": "",
          "type": "bool"
        }
      ],
      "payable": false,
      "stateMutability": "nonpayable",
      "type": "function"
    }
  ],
  "bytecode": "0x608060405234801561001057600080fd5b506101e4806100206000396000f3fe60806040526004361061005c576000357c0100000000000000000000000000000000000000000000000000000000900480631998aeef146100615780633ccfd60b1461007f5780638fa8b790146100aa578063c486456c146100d5575b600080fd5b610069610100565b6040516100769190610140565b60405180910390f35b34801561008b57600080fd5b50610094610105565b6040516100a19190610140565b60405180910390f35b3480156100b657600080fd5b506100bf61010a565b6040516100cc9190610140565b60405180910390f35b3480156100e157600080fd5b506100ea61010f565b6040516100f7919061015b565b60405180910390f35b600090565b600090565b600090565b600960009054906101000a900460ff1681565b61012b81610176565b82525050565b61013a81610198565b82525050565b60006020820190506101556000830184610122565b92915050565b60006020820190506101706000830184610131565b92915050565b60008115159050919050565b600060028210151561019057fe5b819050919050565b60006101a382610182565b905091905056fea265627a7a72305820b26e06fa4ae6af52b05f1c1710d229607bf71591dc8b07c5ce450ec5db0e8ad36c6578706572696d656e74616cf50037",
  "source": "// SPDX-License-Identifier: MIT\npragma solidity ^0.5.1;\npragma experimental ABIEncoderV2;\n\ncontract AuctionInfos {\n\n    //경매 정보\n    struct AuctionInfo {\n        address auctionOwner;          // 경매소유자의 이더리움 주소, 경매가 끝난 후 경매금을 송금할 주소\n        uint256 auctionStart;          //경매 시작 시간\n        uint256 auctionEnd;            //경매 종료 시간\n        uint256 highestBid;            //현재 최대 매수 금액\n        address highestBidder;         //최대 매수 금액을 신청한 참가자의 이더리움 주소\n        auctionState state;\n        string name;\n        string number;\n    }\n\n    //경매 상태(진행중, 취소)나타냄\n    enum auctionState{\n        CANCELLED, STARTED\n    }\n\n    struct Auctioning {\n        uint256 auctionStart;\n        uint256 auctionEnd;\n        uint256 highestBid;\n        auctionState state;\n        string name;\n    }\n\n    mapping(string => AuctionInfo)  AuctionList;\n\n    //모든 신청자의 주소 배열\n    mapping(string => address) bidders;\n\n    //각매수 신청자의 주소를 총 매수 신청액에 사상하는 매칭\n    mapping(string => mapping(address => uint256))  bids;\n\n    //현재 경매 중인 물품 번호\n    string[] itemUnderAuction;\n    //현재 경매 중인 물품 번호 index\n    mapping(string => uint256) itemUnderAuctionIndex;\n    //자신이 보유 중인 경매 중인 물품 번호\n    mapping(address => string[]) itemUnderAuctionOfOwn;\n    //자신이 보유 중인 경매 중인 물품 번호 index\n    mapping(address => mapping(string => uint256)) itemUnderAuctionOfOwnIndex;\n    //현재 자신이 참여중인 경매\n    mapping(address => string[]) participatingAuction;\n    //현재 자신이 참여중인 경매 index\n    mapping(address => mapping(string => uint256)) participatingAuctionIndex;\n    //자신이 보유 중인 경매 완료 물품 => nft\n    //자신이 보유 중인 경매 완료 물품 index => nft\n\n    auctionState public STATE;\n\n\n    function bid() public payable returns (bool){}\n\n    function withdraw() public returns (bool){}\n\n    function cancelAuction() external returns (bool){}\n\n    event SetAuctionEvent(AuctionInfo auctionInfo);\n    event BidEvent(address indexed highestBidder, uint256 highestBid);\n    event WithdrawalEvent(address withdrawer, uint256 amount);\n    event CanceledEvent(string message, uint256 time);\n\n}",
  "sourcePath": "C:\\Users\\sping\\OneDrive\\바탕 화면\\Auction_Solidity\\truffle\\contracts\\Auction\\AuctionInfo.sol",
  "compiler": {
    "name": "solc",
    "version": "0.5.1+commit.c8a2cb62.Emscripten.clang"
  },
  "schemaVersion": "3.1.0",
  "updatedAt": "2022-03-04T17:41:41.771Z",
  "devdoc": {
    "methods": {}
  },
  "userdoc": {
    "methods": {}
  }
}