{
  "contractName": "AuctionInfo",
  "abi": [
    {
      "constant": true,
      "inputs": [
        {
          "name": "",
          "type": "address"
        }
      ],
      "name": "bids",
      "outputs": [
        {
          "name": "",
          "type": "uint256"
        }
      ],
      "payable": false,
      "stateMutability": "view",
      "type": "function"
    },
    {
      "constant": true,
      "inputs": [],
      "name": "auction_start",
      "outputs": [
        {
          "name": "",
          "type": "uint256"
        }
      ],
      "payable": false,
      "stateMutability": "view",
      "type": "function"
    },
    {
      "constant": true,
      "inputs": [],
      "name": "highestBidder",
      "outputs": [
        {
          "name": "",
          "type": "address"
        }
      ],
      "payable": false,
      "stateMutability": "view",
      "type": "function"
    },
    {
      "constant": true,
      "inputs": [],
      "name": "auction_end",
      "outputs": [
        {
          "name": "",
          "type": "uint256"
        }
      ],
      "payable": false,
      "stateMutability": "view",
      "type": "function"
    },
    {
      "constant": true,
      "inputs": [],
      "name": "STATE",
      "outputs": [
        {
          "name": "",
          "type": "uint8"
        }
      ],
      "payable": false,
      "stateMutability": "view",
      "type": "function"
    },
    {
      "constant": true,
      "inputs": [],
      "name": "AuctionList",
      "outputs": [
        {
          "name": "Name",
          "type": "string"
        },
        {
          "name": "Number",
          "type": "string"
        }
      ],
      "payable": false,
      "stateMutability": "view",
      "type": "function"
    },
    {
      "constant": true,
      "inputs": [],
      "name": "highestBid",
      "outputs": [
        {
          "name": "",
          "type": "uint256"
        }
      ],
      "payable": false,
      "stateMutability": "view",
      "type": "function"
    },
    {
      "anonymous": false,
      "inputs": [
        {
          "indexed": true,
          "name": "highestBidder",
          "type": "address"
        },
        {
          "indexed": false,
          "name": "highestBid",
          "type": "uint256"
        }
      ],
      "name": "BidEvent",
      "type": "event"
    },
    {
      "anonymous": false,
      "inputs": [
        {
          "indexed": false,
          "name": "withdrawer",
          "type": "address"
        },
        {
          "indexed": false,
          "name": "amount",
          "type": "uint256"
        }
      ],
      "name": "WithdrawalEvent",
      "type": "event"
    },
    {
      "anonymous": false,
      "inputs": [
        {
          "indexed": false,
          "name": "message",
          "type": "string"
        },
        {
          "indexed": false,
          "name": "time",
          "type": "uint256"
        }
      ],
      "name": "CanceledEvent",
      "type": "event"
    },
    {
      "constant": false,
      "inputs": [],
      "name": "bid",
      "outputs": [
        {
          "name": "",
          "type": "bool"
        }
      ],
      "payable": true,
      "stateMutability": "payable",
      "type": "function"
    },
    {
      "constant": false,
      "inputs": [],
      "name": "withdraw",
      "outputs": [
        {
          "name": "",
          "type": "bool"
        }
      ],
      "payable": false,
      "stateMutability": "nonpayable",
      "type": "function"
    },
    {
      "constant": false,
      "inputs": [],
      "name": "cancel_auction",
      "outputs": [
        {
          "name": "",
          "type": "bool"
        }
      ],
      "payable": false,
      "stateMutability": "nonpayable",
      "type": "function"
    }
  ],
  "bytecode": "0x608060405234801561001057600080fd5b50610575806100206000396000f3fe60806040526004361061009e576000357c0100000000000000000000000000000000000000000000000000000000900480631998aeef146100a35780633ba88ca1146100c55780633ccfd60b146100f457806362ea82db1461012357806378f453401461018857806391f90157146101b3578063c458b65a1461020a578063c486456c14610235578063d1bd0a781461026e578063d57bde791461036a575b600080fd5b6100ab610395565b604051808215151515815260200191505060405180910390f35b3480156100d157600080fd5b506100da61039a565b604051808215151515815260200191505060405180910390f35b34801561010057600080fd5b5061010961039f565b604051808215151515815260200191505060405180910390f35b34801561012f57600080fd5b506101726004803603602081101561014657600080fd5b81019080803573ffffffffffffffffffffffffffffffffffffffff1690602001909291905050506103a4565b6040518082815260200191505060405180910390f35b34801561019457600080fd5b5061019d6103bc565b6040518082815260200191505060405180910390f35b3480156101bf57600080fd5b506101c86103c2565b604051808273ffffffffffffffffffffffffffffffffffffffff1673ffffffffffffffffffffffffffffffffffffffff16815260200191505060405180910390f35b34801561021657600080fd5b5061021f6103e8565b6040518082815260200191505060405180910390f35b34801561024157600080fd5b5061024a6103ee565b6040518082600181111561025a57fe5b60ff16815260200191505060405180910390f35b34801561027a57600080fd5b50610283610401565b604051808060200180602001838103835285818151815260200191508051906020019080838360005b838110156102c75780820151818401526020810190506102ac565b50505050905090810190601f1680156102f45780820380516001836020036101000a031916815260200191505b50838103825284818151815260200191508051906020019080838360005b8381101561032d578082015181840152602081019050610312565b50505050905090810190601f16801561035a5780820380516001836020036101000a031916815260200191505b5094505050505060405180910390f35b34801561037657600080fd5b5061037f610543565b6040518082815260200191505060405180910390f35b600090565b600090565b600090565b60086020528060005260406000206000915090505481565b60015481565b600460009054906101000a900473ffffffffffffffffffffffffffffffffffffffff1681565b60025481565b600960009054906101000a900460ff1681565b6005806000018054600181600116156101000203166002900480601f01602080910402602001604051908101604052809291908181526020018280546001816001161561010002031660029004801561049b5780601f106104705761010080835404028352916020019161049b565b820191906000526020600020905b81548152906001019060200180831161047e57829003601f168201915b505050505090806001018054600181600116156101000203166002900480601f0160208091040260200160405190810160405280929190818152602001828054600181600116156101000203166002900480156105395780601f1061050e57610100808354040283529160200191610539565b820191906000526020600020905b81548152906001019060200180831161051c57829003601f168201915b5050505050905082565b6003548156fea165627a7a72305820b85801ed4901b2d4fb688cfb8854c97b5a9d80330444fd1ab3a028bcf7bade350029",
  "source": "// SPDX-License-Identifier: MIT\npragma solidity ^0.5.1;\n\ncontract AuctionInfo {\n\n  address payable internal auction_owner;     // 경매소유자의 이더리움 주소, 경매가 끝난 후 경매금을 송금할 주소\n  uint256 public auction_start;               //경매 시작 시간\n  uint256 public auction_end;                 //경매 종료 시간\n  uint256 public highestBid;                  //현재 최대 매수 금액\n  address public highestBidder;               //최대 매수 금액을 신청한 참가자의 이더리움 주소\n\n\n  //경매 상태(진행중, 취소)나타냄\n  enum auction_state{\n    CANCELLED,STARTED\n  }\n\n  struct  AuctionInfo{\n    string  Name;\n    string  Number;\n  }\n  AuctionInfo public AuctionList;\n  address[] bidders;      //모든 신청자의 주소 배열\n\n  //각매수 신청자의 주소를 총 매수 신청액에 사상하는 매칭\n  mapping(address => uint) public bids;\n\n  auction_state public STATE;\n\n\n  modifier an_ongoing_auction(){\n    require(now <= auction_end);\n    _;\n  }\n\n  modifier only_owner(){\n    require(msg.sender==auction_owner);\n    _;\n  }\n\n  function bid() public payable returns (bool){}\n  function withdraw() public returns (bool){}\n  function cancel_auction() external returns (bool){}\n\n  event BidEvent(address indexed highestBidder, uint256 highestBid);\n  event WithdrawalEvent(address withdrawer, uint256 amount);\n  event CanceledEvent(string message, uint256 time);\n\n}",
  "sourcePath": "C:\\Users\\sping\\OneDrive\\바탕 화면\\Auction_Solidity\\truffle\\contracts\\Auction\\AuctionInfo.sol",
  "compiler": {
    "name": "solc",
    "version": "0.5.1+commit.c8a2cb62.Emscripten.clang"
  },
  "schemaVersion": "3.1.0",
  "updatedAt": "2022-02-28T13:27:25.945Z",
  "devdoc": {
    "methods": {}
  },
  "userdoc": {
    "methods": {}
  }
}